:10000000B00D012095130000911300009113000022
:1000100091130000911300009113000000000000F4
:10002000000000000000000000000000911300002C
:10003000911300000000000091130000B9040000BB
:100040009113000091130000911300009113000020
:100050009113000091130000911300009113000010
:100060009113000091130000911300009113000000
:1000700091130000911300009113000091130000F0
:1000800091130000911300009113000091130000E0
:1000900091130000911300009113000091130000D0
:1000A00091130000911300009113000091130000C0
:1000B00091130000911300009113000091130000B0
:1000C00091130000911300009113000091130000A0
:1000D0009113000091130000911300009113000090
:1000E00091130000911300000000000000000000C8
:1000F0000000000091130000911300009113000014
:10010000911300009113000091130000911300005F
:10011000911300009113000091130000911300004F
:10012000911300009113000091130000911300003F
:10013000911300009113000091130000911300002F
:100140009113000091130000A91B0000BD1B0000CB
:10015000D11B0000E51B000091130000911300006B
:1001600091130000911300009113000091130000FF
:100170009113000091130000000000000000000037
:1001800091130000911300009113000091130000DF
:100190000000000091130000911300009113000073
:1001A00091130000911300009113000091130000BF
:1001B00091130000911300009113000091130000AF
:1001C000911300009113000091130000911300009F
:1001D000911300009113000091130000911300008F
:1001E0009113000091130000911300002D0D0000E9
:1001F000911300009113000091130000911300006F
:10020000911300009113000091130000911300005E
:10021000911300009113000091130000911300004E
:10022000911300009113000091130000911300003E
:10023000911300009113000091130000911300002E
:10024000911300009113000091130000911300001E
:10025000911300009113000091130000911300000E
:100260009113000010B5054C237833B9044B13B13A
:100270000448AFF300800123237010BDE80900207B
:1002800000000000ECAC00000C4B43B10C480D49E1
:1002900010B5AFF300800C48036823B910BD0A48BD
:1002A000036833B97047094B002BF7D0BDE8104005
:1002B0001847064B002BF5D0184700BF0000000080
:1002C000ECAC0000EC090020ECAC000000000000E9
:1002D0000122027004224270002242807047000016
:1002E00010B582B0009313460A4648210248034CD9
:1002F000A04702B010BD00BF280D0020AD060000D1
:1003000010B582B0009313460A4648210248034CB8
:10031000A04702B010BD00BF280D0020F905000065
:1003200030B583B004464388032903D8DFE801F0E1
:10033000282F363D43F4C17343F00103ADF8043078
:10034000BDF804306FEA43436FEA534302AA22F830
:10035000043D022301212046174DA8472178174864
:10036000174B984702230DF1060200212046154D38
:10037000A847BDF806006378184180B203B030BDCD
:1003800043F4834343F00303ADF80430D8E743F468
:10039000A34343F00303ADF80430D1E743F4C34370
:1003A00043F00303ADF80430CAE743F4E34343F0FA
:1003B0000303ADF80430C3E7E1020000500B002056
:1003C0005D05000001030000F8B50746084E094D21
:1003D000094C00213846B047024629462046074BC3
:1003E00098474FF47A710648064B9847F1E700BFEB
:1003F00021030000B8950000800B0020BD11000013
:10040000500B00205D05000008B5014B984700BF68
:10041000C90300000A22426082600C22C2600261AD
:1004200000220270427070477047EFF31083036040
:1004300072B6BFF35F8F7047BFF35F8F036883F3BC
:10044000108870474FF0FF334360704770470000DB
:10045000074A084B1A60084B084A5A60E021084ACC
:1004600082F8231000229A6007221A60704700BFAA
:10047000000E27073800002010E000E0BFD4010084
:1004800000ED00E04368B3F1FF3F02D0013B436061
:1004900003B17047BFF34F8F0549CA6802F4E062A9
:1004A000044B1343CB60BFF34F8F00BFFDE700BF8A
:1004B00000ED00E00400FA0508B5044A13680133B2
:1004C00013600348034B984708BD00BF040A00208F
:1004D000500B002085040000014B1868704700BFD6
:1004E000040A0020F0B51A4B986803F54F635C6866
:1004F000C4F38064174B1D68DFF854E0164F1E46A6
:1005000002E015461C460846DEF808107B68C3F377
:10051000806332689C42F4D1954203D015461C4654
:100520000846F1E7884203D215461C460846EBE729
:10053000074B5B681B1A42F2222000FB03F02C449D
:100540004FF47A7303FB04F404EB1050F0BD00BFCA
:1005500010E000E0040A002000ED00E001B970475F
:10056000F8B506460C46084B98470546064F08E086
:100570003046B847401BB0F57A7F02D3013C05F501
:100580007A75002CF4D1F8BDE5040000704710B472
:100590004161027643760023837610BC70470000E9
:1005A000F8B505460E4940690E4B984768690E4BF1
:1005B0009847297E0D4C01EB410304EBC3030C4F1C
:1005C00093F9082038460B4EB047697E01EB410392
:1005D00004EBC30494F908203846B047F8BD00BFC7
:1005E000A0860100491B0000F7170000BC95000021
:1005F000440D0020C10700002DE9F84F04460F46C6
:100600001546984600224069224B9847064670B12D
:1006100029466069204B9847054678B10122394642
:1006200060691C4B9847064668B92E4603E00321D3
:1006300060691A4B98473046BDE8F88F032160691E
:10064000164B9847F7E76069154B984788F8000004
:100650000A9B012B16D901273D46DFF84CB0DFF885
:100660003CA0DFF83C906069D84702216069D04720
:100670006069C84708F807000135EDB22F460A9BAC
:10068000AB42F0D86069074B984703216069034B80
:100690009847D0E767180000C91800003D1800000F
:1006A000EF180000211800002F1800002DE9F84372
:1006B000054614461F46089E00224069134B984782
:1006C0008146B0B121466869114B984766B1002355
:1006D0001C46DFF83C80F95C6869C04780B1013492
:1006E000E4B22346B442F6D303216869094B984724
:1006F00003E003216869074B98474846BDE8F88343
:1007000003216869034B9847F7E700BF67180000AB
:10071000C91800003D1800007047704708B5012255
:100720000A210248024B984708BD00BF440D002033
:10073000390700007047704710B420484C00631818
:1007400010F933300C4400EBC400416801208840AC
:10075000032A0DD8DFE802F002260E1ADB0103F1AE
:10076000824303F500431944022281F84020586077
:1007700010BC7047DB0103F1824303F500431944C9
:10078000062281F8402058609861F1E7DB0103F10F
:10079000824303F500431944062281F84020586043
:1007A0005861E5E7DB0103F1824303F50043194497
:1007B000022281F840209860DAE700BF7C990000AF
:1007C00070B501EB4104434B03EBC40393F90830CC
:1007D000B3F1FF3F77D0531C122B0BD8DFE803F0A7
:1007E0007623232323232323232323232323230C9D
:1007F0000C0C0C00002070BD0F2A05D0102A08D068
:10080000112A0BD0002070BD0022334B98470020E6
:1008100070BD0222304B9847002070BD01222E4B44
:100820009847002070BD01EB41032A4800EBC30349
:1008300058682A4B18601B6813F0010F21D1254D11
:100840004E00731815F93330DB0103F1824303F5D1
:10085000004303EB500090F8304004F0F00402F045
:100860000F02224380F83020314405EBC1056A684D
:10087000134493F8402042F0410283F840200020C6
:1008800070BD144D4E00731815F93330DB0103F1C0
:10089000824303F5004303EB500090F8304004F02E
:1008A0000F0444EA0212D2B280F83020314405EB42
:1008B000C1056A68134493F8402042F0410283F86E
:1008C0004020002070BD4FF0FF3070BD4FF0FF3072
:1008D00070BD00BF7C99000039070000100A00209D
:1008E00001EB41001C4B03EBC00393F90830B3F15B
:1008F000FF3F29D030B4184D4B0005EBC0004068D5
:1009000001248440194415F93130D90101F18241A3
:1009100001F5004189680C420ED1151C18BF012554
:1009200000EBC31101F1824101F5004191F8400053
:1009300065F3820081F840003AB1DB0103F18243A4
:1009400003F500439C6130BC7047DB0103F1824337
:1009500003F500435C61F6E77C99000070470000F6
:100960002DE9F04101EB41067B4B03EBC603DF6849
:1009700017F4427F00F0CA8015460446B3F91260AE
:100980004FEA2628F6B217F0080F57D117F4807FE8
:1009900059D117F4007F5BD1704B13F80830002B4E
:1009A00040F0A38001226D4B03F808206A4B03EB53
:1009B0008803D3F8C03320334021694A42F823101A
:1009C000B8F1040F49D9674B53F8283023601A68EF
:1009D00042F001021A602268136913F0010FFBD183
:1009E00013686FF3410313602268136913F0020F59
:1009F000FBD140F204631360236802221A73236858
:100A00001A6912F0400FFBD1EDB233441D77226812
:100A1000136913F0400FFBD1FF23D37622681369CB
:100A200013F0200FFBD1136843F002031360226818
:100A3000136913F0020FFBD1BDE8F08104224A488C
:100A40004A4B9847A8E705224748484B9847A3E7F1
:100A500006224548454B98479EE7424B53F82830BD
:100A600063601A6842F001021A606268936813F0CA
:100A7000010FFBD113686FF3410313606268936841
:100A800013F0020FFBD14FF4C063136063680222BE
:100A9000DA6363689A6812F0400FFBD19A6812F427
:100AA000807FFBD19A6812F4007FF7D1103603EBF8
:100AB00086035D606268936813F4807FFBD193685E
:100AC00013F4007FF7D1FF2313646268936813F077
:100AD000800FFBD1136843F00203136062689368D0
:100AE00013F0020FFBD1BDE8F081B8F1040F0FD96C
:100AF0001C4B53F82810EDB20E4435770B6913F0F8
:100B0000400FFBD10B6913F0800FF7D1BDE8F081E6
:100B1000144B53F828309A6812F0040FFBD19A68EE
:100B200012F4807FFBD19A6812F4007FF7D11C3653
:100B300043F826509A6812F4807FFBD19A6812F429
:100B4000007FF7D11A7942F002021A719A6812F006
:100B5000040FFBD1DAE700BF3C9D0000940A00209F
:100B6000001C004004000020440D0020C1070000CC
:100B700008B5034A03490448044B984708BD00BF21
:100B8000000000205D090000A40A0020F91B0000FD
:100B90002DE9F04105460C4616461F465E4B1B5C90
:100BA00013F0800F22D100EB400189005A4B1A5CF0
:100BB0005B78DBB241FA82F29A421DDA564B1A5C3C
:100BC00041FA82F203EBC2031B7913F0400F13D0FA
:100BD000514B1A5C41FA82F103EBC10319790022EF
:100BE00001F03F014D484E4B984705E000238B82B2
:100BF000236913F0100FFBD1474A535D01335BB2F9
:100C0000535505EB45084FEA8808515D5378DBB230
:100C100048FA81F29A4204DA3F4B5B5D5BB20B2BE0
:100C200048DDA28A92B2236913F0100FFBD13D4B2D
:100C30001B683D49A1FB0313990C44F6206303FB99
:100C400001F39B09111D994225D29BB206F10C02BA
:100C500004EB4202938036BB236913F0400FFBD1B3
:100C6000FF222D4B5A55A772BDE8F0812A4B5A5DE1
:100C700048FA82F203EBC2031979012201F03F0125
:100C80002648274B98471FE0012EECD1236913F02B
:100C9000800FFBD1E7E7043292B206F10C0304EBBC
:100CA00043039A80D7E7012EDAD1236913F0800F2E
:100CB000FBD1D5E7184B5A5D48FA82F203EBC20329
:100CC0001B7913F0400FD1D1236913F0040FFBD12E
:100CD0006379042262F347136371236913F0040FED
:100CE000FBD1A38A9AB2236913F0100FFBD10A4BF0
:100CF000595D48FA81F803EBC8039B6813449BB223
:100D000006F10C0204EB42029380002EBCD1236951
:100D100013F0400FFBD1A6E7AC0A0020440D0020E1
:100D2000E10800003800002083DE1B4310B51023CB
:100D3000002202491046024CA04710BD0038004076
:100D4000910B00000F4B5B78DBB20B2B02DDFF2316
:100D50000370704710B40B4B5978C9B24A1CD2B219
:100D60005A700170084A1268084CA4FB0242940CA5
:100D700040F2DC5202FB04F2920903EBC1039A60D9
:100D800010BC7047AC0A00203800002083DE1B43F3
:100D90007047704710B50024447261B10160027160
:100DA00083719DF8083043719DF80C30C3719DF834
:100DB0001030037210BD034B034A25210348044C35
:100DC000A04700BF3CA5000030A1000050A50000D6
:100DD000F924000008B50C480C4B03600023437154
:100DE000037143740A4B83601723037319238373BE
:100DF000182343730223C3730374064A0649083059
:100E0000064B984708BD00BF100B002000093D00AD
:100E10005C0B002000000020930D0000F91B000077
:100E200070470346C0F88011C822A0F866219622B8
:100E3000A0F876218218C0F86821C3F878017047BD
:100E40002DE9F04182B004468846114680F884219D
:100E500080F885319DF8203080F886319DF8243067
:100E600080F887319DF8283080F888319DF82C3043
:100E700080F88931494D02EB420305EBC303484F2B
:100E800093F908203846474EB04794F8851101EB96
:100E9000410305EBC30595F908203846B04794F89F
:100EA0008731022B4DD094F88811FF291CD00122E4
:100EB0003B483D4B984794F88851384A69004B1994
:100EC00012F93300C001394B0344C4F88C31384B5C
:100ED0000344C4F89031294402EBC1025168012255
:100EE0008A40C4F894211A60D4F88001314B9847A5
:100EF0000121D4F88001304B984780B30121D4F808
:100F000080012E4B9847434601221146D4F88001B8
:100F10002B4DA8470021009102230122D4F8800123
:100F2000284DA84794F8862194F88711D4F88001B9
:100F3000254B9847D4F88001244B984702B0BDE870
:100F4000F08194F88911FF29ADD001EB4102134BD8
:100F500003EBC20393F908203846B047A3E7D4F85F
:100F600080011B4B984705461A4B18600221D4F8A4
:100F70008001194B984730B945F00101D4F8800140
:100F8000164B9847BAE7D4F88001154B98470221D1
:100F9000D4F88001094B9847EEE700BF60A5000038
:100FA000440D0020C10700003907000018800041EF
:100FB00014800041951A0000311700003F1700000F
:100FC000F51500004D16000087160000AD16000054
:100FD00061170000280B002049170000A51700002A
:100FE0006D1700008888CB88984212DA0B888868D1
:100FF000C2540B8801339BB20B80CA889342A4BFB2
:1010000000230B8072B68B8801338B8062B601207F
:101010007047002070478B889BB14B888868C35C01
:1010200013704B8801339BB24B80CA889342A4BF94
:1010300000234B8072B68B88013B8B8062B6012007
:10104000704700207047000010B582B00446D0F809
:101050008001224B984780B9D4F88001204B9847F3
:10106000A0B9D4F880011F4B9847D0B9D4F88001BB
:101070001D4B984748BB02B010BDD4F880011B4BF4
:101080009847D4F880011A4B9847E5E7D4F88001D7
:10109000164B9847024604F5B0712046154B984709
:1010A000DFE70DF1070204F5B8712046124B9847AF
:1010B00030B19DF80710D4F88001104B9847D5E760
:1010C000D4F880010E4B9847D0E7D4F880010D4B3F
:1010D0009847D4F880010C4B9847CCE7E9160000FC
:1010E000CB160000FF160000D516000009170000FF
:1010F000F3160000E50F00001710000011170000A4
:1011000029170000DD160000C31600002DE9F0418C
:1011100004468846D0F88001224B984710B1B4F8B5
:1011200074311BB11F4E204F204D0EE04146D4F8C4
:1011300080011F4B984731E003F00F03043B2B4421
:101140001B7ED4F88001B047D8B9B4F87421B4F844
:1011500076319A4218DBEFF3108313F0010FF0D1D0
:101160006B68C3F30803002BEFD0103B9BB21AB29D
:10117000002AE1DB02F1604303F5614393F8003399
:10118000DFE72046B847E0E7424604F5B87120465D
:10119000084B9847D4F88001074B98470120BDE8D9
:1011A000F08100BFFF1600004910000000ED00E0D4
:1011B00011170000E50F0000211700000EB4F0B574
:1011C00096B006461BAA52F8041B019202A80B4BCC
:1011D0009847C5B26DB100231C46094F16AA1344A7
:1011E00013F8501C3046B8470134E4B22346AC42F1
:1011F000F4DB16B0BDE8F04003B07047316000008A
:101200000D11000070477047154B1B68154AA2FB73
:1012100003239B09013BB3F1807F20D2124A536024
:10122000124BE02183F82310002191600721116007
:10123000C02283F823200E4B5A6942F470425A614F
:101240009A6942F4FC429A61DA6942F07802DA6102
:101250001A6A6FEA92226FEA82221A627047FEE7E8
:1012600038000020D34D621010E000E000ED00E0F7
:10127000000800402DE9F04385B01D4B9847FF233F
:101280000393029300220192012300934FF4E13172
:101290001848194CA047194C2046194B9847194E2D
:1012A0004FF47A7211213046174DA8474FF4FA6275
:1012B00012213046A8471548154B9847201D154B5D
:1012C0009847DFF860904FF00A0801240022414659
:1012D0004846114FB847114E21463046104DA84799
:1012E000224641464846B84721463046A847EDE7E2
:1012F00009120000800B0020410E00002C0B002082
:101300001D070000A40A002061090000280D00202C
:10131000A105000009040000E1080000500B0020B6
:101320005D050000440D002070B50F4C201D0F4BD3
:10133000984704F1080528460D4B98470D4E324654
:101340000D4928460D4DA84720460D4B984732467B
:101350000C492046A8470C3420460B4B9847324690
:101360000A492046A84770BD2C0B0020D10200007E
:10137000450D000000000020910D0000F91B000049
:10138000190700001B0700001504000029040000D5
:10139000FEE7000008B5174B174A9A4210D0174BCA
:1013A000144A9A420CD2013B9B1A23F003030433E4
:1013B0001344114951F8040B42F8040B9A42F9D135
:1013C0000F4B104A9A420AD2013B9B1A23F00303A7
:1013D00004331344002142F8041B9342FBD10A4A10
:1013E0000A4B23F07F039360094B9847094B9847BA
:1013F000FEE700BF00000020ECAC0000E809002080
:10140000AC0D0020E809002000ED00E00000000025
:101410006925000091140000002070476122014BF3
:101420001A707047800D00200346064A126822B1E8
:10143000044A10680344136070470349014A11606D
:10144000F6E700BF4C0B0020B00D01204FF0FF303D
:1014500070474FF400534B600020704701207047E5
:101460000020704708B501460148024B9847FEE747
:1014700020A900005526000070474FF0FF3070474C
:10148000014A024B1A607047006CDC0238000020F1
:10149000F8B50F4B98470F4C20460F4B9847204606
:1014A0000E4B9847064604F108000D4B9847254619
:1014B0000A4C0C4F2846A047801BB0F57A7FF9D91B
:1014C0002846A04706463846074B9847F2E700BF34
:1014D00081140000500B002051040000D9040000CA
:1014E000751200003CA90000552600002DE9F043CC
:1014F00085B02B4C04F10C092A4948462A4DA847CF
:1015000004F1180829494046A84704F1240628494F
:101510003046A84704F1300531462846254B984708
:10152000254E324625492846254DA84704F5E4773F
:10153000022302930193182300931923172249468B
:101540003846DFF8A090C84732461E493846A847BB
:1015500004F5EC771623152241463846DFF88880DB
:10156000C047324618493846A84704F5FA77384646
:10157000164B9847324616493846A8472046154B21
:101580009847324614492046A84708342046134B52
:101590009847324612492046A84705B0BDE8F08377
:1015A000500B002000340040ED15000000200141E8
:1015B00000040043230E000000000020210E000064
:1015C000F91B0000930D00008D0500003507000099
:1015D00037070000450400004D040000051200001C
:1015E00007120000950D00008F0500000160012228
:1015F0000271704770B406688C0004F01C04550337
:10160000ADB22C43346084240E4D2C600568AC755B
:10161000012901D070BC7047012A0CBF102208229A
:1016200003FB02F2084BB3FBF2F30268918963F308
:101630004F3191810268C3F3CC03918963F30C01AC
:101640009181E7E7480D00200060E31670B406685A
:101650003568022B14BF4FF08074002445EA827273
:1016600044EA020434600068426801F007019DF812
:101670000C4041EA841114BF5B0300230A431A4360
:10168000426070BC704710B403681C68120502F415
:1016900040122243090401F440310A431A600268EF
:1016A000536843F44033536010BC704702681368BA
:1016B00043F0020313600268D36913F0020FFBD1F9
:1016C0007047036800225A8370470368187EC0F38E
:1016D000800070470368187EC00970470268137E57
:1016E00043F08003137670470368588BC0F34000C3
:1016F00070470268538B43F00203538370470368BB
:10170000187E00F0010070470368986AC0B2704705
:101710000268137E13F0010FFBD091620120704725
:10172000036801229A757047036801221A75704791
:101730000368DB690B4214BF012000207047026878
:10174000D3690B42FCD1704738B505460C460321DE
:10175000024B98472B681868204038BD3F1700009F
:101760000368186800F01C007047000038B5054693
:10177000084C2046084B98472A68136823F0020358
:10178000136003212846054B98472046044B984791
:1017900038BD00BF0C0A00202B0400003F170000DA
:1017A0003904000070B505460E46074C2046074B2D
:1017B00098472B681E6003212846054B9847204612
:1017C000044B984770BD00BF0C0A00202B0400009A
:1017D0003F170000390400000268136843F001035A
:1017E00013600268136813F0010FFBD1D36913F083
:1017F000010FF7D170470268136843F002031360CA
:101800000268D36913F0020FFBD1538B012161F3FE
:10181000051353830268D36913F0040FFBD170479B
:1018200003681A685A6842F480225A607047036855
:101830001A685A686FF392425A60704703681A68D0
:10184000C2F38202052A09D15A6861F311425A6033
:101850000268D36913F0040FFBD170475A6861F333
:1018600011425A60704710B442EA4101C9B204689B
:1018700004E0638BC3F30113022B04D0638BC3F327
:101880000113012BF5D1636A61F30A03636262B944
:101890000268137E13F0010FFBD00368588BC0F36E
:1018A000800080F0010010BC704703681A7E12F0BF
:1018B000020FF2D11A7E12F0010FF7D05A6842F4EB
:1018C00040325A600020EEE70368996203681A7E8E
:1018D00012F0010F05D15A8B12F0010FF7D0002042
:1018E0007047588BC0F3800080F001007047026899
:1018F0001368C3F38203052B06D1137E13F0020F86
:10190000FBD0906AC0B27047906AC0B270470000C6
:101910000368124A93421DD002F58062934211D0AF
:101920000F4A934210D002F5005293420ED0B3F109
:10193000864F0DD00B4A934208BF05200BD04FF0C5
:10194000FF307047012006E0022004E0032002E09F
:10195000042000E0002040B2704700BF003000408B
:101960000020014100040043052A4ED070B41BB38F
:10197000394C04EB011109790C46384D203155F8EA
:1019800021606FF3861645F821602E460D4656F805
:10199000251011F0400FFAD1002B37D00271002A28
:1019A00049D0012A36D104F1200341212B4A42F8C3
:1019B00023102B4B83601FE0274C04EB0111497966
:1019C000DAE704F120024225244941F822509BB174
:1019D000244B836010E004F1200243251F4941F8A5
:1019E00022504BB14FF40043836005E004F1200323
:1019F00040211A4A42F82310184904F1200251F8F4
:101A0000223013F0400FFAD070BC7047002AEDD09E
:101A1000012A19D0022AD4D0032ADCD0042AEBD11F
:101A200004F1200244250D4941F82250002BE3D057
:101A30000D4B8360E0E704F120034021074A42F8A0
:101A400023100A4B8360D7E704F120034121034AA6
:101A500042F82310D0E700BF44A90000001C00405A
:101A6000006CDC0200E1F505001BB700000E270743
:101A7000064B4122C3F80C214322C3F88C20044AB0
:101A8000136A43F002031362704700BF001C00405A
:101A9000000800402DE9F0410446254B9847051EFB
:101AA00043DB2B01234E9A1D32440E331E44DFF8D4
:101AB00094E0E027012020491BE020461F4B984777
:101AC00001232279294620461D4EB0470023227962
:101AD00029462046B047BDE8F08103F00F03043BE0
:101AE00073441F76B2F90030002B15DA0232B2428D
:101AF000E3D0B2F90030002BEFDB4FEA531C03F0C8
:101B00001F0800FA08F80CF1600C41F82C800B4417
:101B100083F80073B2F900304FEA531C03F01F033F
:101B200000FA03F341F82C30E0E7BDE8F08100BF94
:101B30001119000044A9000000E100E0711A000042
:101B40006919000000ED00E038B505460C46114B60
:101B500098472846104B98472B6814221A602A6829
:101B60000E4B1B686400B3FBF4F40D49A1FB031397
:101B70009B0CC3EB431103EB81030A49A1FB031345
:101B8000A4EBD313053BDBB2D16863F30701D1604B
:101B900038BD00BF951A0000D9170000380000209A
:101BA00083DE1B43D34D621008B50248024B9847B1
:101BB00008BD00BF800B00204910000008B5024896
:101BC000024B984708BD00BF800B00204910000061
:101BD00008B50248024B984708BD00BF800B0020A3
:101BE0004910000008B50248024B984708BD00BFE5
:101BF000800B0020491000000B460146184600F0FB
:101C000099BC00BF81F0004102E000BF83F00043B7
:101C100030B54FEA41044FEA430594EA050F08BF87
:101C200090EA020F1FBF54EA000C55EA020C7FEA4B
:101C3000645C7FEA655C00F0E2804FEA5454D4EBC8
:101C40005555B8BF6D420CDD2C4480EA020281EA92
:101C5000030382EA000083EA010180EA020281EACA
:101C60000303362D88BF30BD11F0004F4FEA01311C
:101C70004FF4801C4CEA113102D0404261EB41012B
:101C800013F0004F4FEA03334CEA133302D05242B1
:101C900063EB430394EA050F00F0A780A4F101046D
:101CA000D5F1200E0DDB02FA0EFC22FA05F28018A7
:101CB00041F1000103FA0EF2801843FA05F359418D
:101CC0000EE0A5F120050EF1200E012A03FA0EFC0C
:101CD00028BF4CF0020C43FA05F3C01851EBE37136
:101CE00001F0004507D54FF0000EDCF1000C7EEB53
:101CF00000006EEB0101B1F5801F1BD3B1F5001F91
:101D00000CD349085FEA30004FEA3C0C04F10104AF
:101D10004FEA445212F5800F80F09A80BCF1004FD8
:101D200008BF5FEA500C50F1000041EB045141EA5A
:101D3000050130BD5FEA4C0C404141EB010111F45B
:101D4000801FA4F10104E9D191F0000F04BF014606
:101D50000020B1FA81F308BF2033A3F10B03B3F1E4
:101D600020020CDA0C3208DD02F1140CC2F10C0274
:101D700001FA0CF021FA02F10CE002F11402D8BFD2
:101D8000C2F1200C01FA02F120FA0CFCDCBF41EA9E
:101D90000C019040E41AA2BF01EB0451294330BD6D
:101DA0006FEA04041F3C1CDA0C340EDC04F114044A
:101DB000C4F1200220FA04F001FA02F340EA030021
:101DC00021FA04F345EA030130BDC4F10C04C4F167
:101DD000200220FA02F001FA04F340EA0300294647
:101DE00030BD21FA04F0294630BD94F0000F83F491
:101DF000801306BF81F480110134013D4EE77FEA74
:101E0000645C18BF7FEA655C29D094EA050F08BFBF
:101E100090EA020F05D054EA000C04BF19461046A0
:101E200030BD91EA030F1EBF0021002030BD5FEAE4
:101E3000545C05D14000494128BF41F0004130BD0C
:101E400014F580043CBF01F5801130BD01F0004560
:101E500045F0FE4141F470014FF0000030BD7FEAD3
:101E6000645C1ABF194610467FEA655C1CBF0B46CE
:101E7000024650EA013406BF52EA033591EA030FE5
:101E800041F4002130BD00BF90F0000F04BF0021DD
:101E9000704730B54FF4806404F132044FF0000510
:101EA0004FF0000150E700BF90F0000F04BF002189
:101EB000704730B54FF4806404F1320410F00045EF
:101EC00048BF40424FF000013EE700BF42004FEAEA
:101ED000E2014FEA31014FEA02701FBF12F07F4367
:101EE00093F07F4F81F06051704792F0000F14BF64
:101EF00093F07F4F704730B54FF4607401F00045A8
:101F000021F0004120E700BF50EA010208BF7047FE
:101F100030B54FF000050AE050EA010208BF7047F3
:101F200030B511F0004502D5404261EB41014FF45C
:101F3000806404F132045FEA915C3FF4DCAE4FF060
:101F400003025FEADC0C18BF03325FEADC0C18BF47
:101F5000033202EBDC02C2F1200300FA03FC20FA98
:101F600002F001FA03FE40EA0E0021FA02F11444E5
:101F7000C1E600BF70B54FF0FF0C4CF4E06C1CEAFA
:101F800011541DBF1CEA135594EA0C0F95EA0C0F6F
:101F900000F0DEF82C4481EA030621EA4C5123EAE2
:101FA0004C5350EA013518BF52EA033541F4801111
:101FB00043F4801338D0A0FB02CE4FF00005E1FBC4
:101FC00002E506F00042E0FB03E54FF00006E1FB0E
:101FD00003569CF0000F18BF4EF0010EA4F1FF0451
:101FE000B6F5007F64F5407404D25FEA4E0E6D4191
:101FF00046EB060642EAC62141EA55514FEAC520A2
:1020000040EA5E504FEACE2EB4F1FD0C88BFBCF51D
:10201000E06F1ED8BEF1004F08BF5FEA500E50F1CE
:10202000000041EB045170BD06F0004646EA010194
:1020300040EA020081EA0301B4EB5C04C2BFD4EBC6
:102040000C0541EA045170BD41F480114FF0000EBF
:10205000013C00F3AB8014F1360FDEBF002001F02D
:10206000004170BDC4F10004203C35DA0C341BDCA7
:1020700004F11404C4F1200500FA05F320FA04F079
:1020800001FA05F240EA020001F0004221F00041AD
:1020900010EBD37021FA04F642EB06015EEA430E20
:1020A00008BF20EAD37070BDC4F10C04C4F1200550
:1020B00000FA04F320FA05F001FA04F240EA020003
:1020C00001F0004110EBD37041F100015EEA430ED4
:1020D00008BF20EAD37070BDC4F1200500FA05F2F4
:1020E0004EEA020E20FA04F301FA05F243EA020373
:1020F00021FA04F001F0004121FA04F220EA020082
:1021000000EBD3705EEA430E08BF20EAD37070BDC7
:1021100094F0000F0FD101F00046400041EB0101A7
:1021200011F4801F08BF013CF7D041EA060195F089
:10213000000F18BF704703F00046520043EB030343
:1021400013F4801F08BF013DF7D043EA0603704730
:1021500094EA0C0F0CEA135518BF95EA0C0F0CD03B
:1021600050EA410618BF52EA4306D1D181EA030181
:1021700001F000414FF0000070BD50EA410606BF7B
:102180001046194652EA430619D094EA0C0F02D1C0
:1021900050EA013613D195EA0C0F05D152EA033605
:1021A0001CBF104619460AD181EA030101F0004123
:1021B00041F0FE4141F470014FF0000070BD41F06C
:1021C000FE4141F4780170BD70B54FF0FF0C4CF446
:1021D000E06C1CEA11541DBF1CEA135594EA0C0F65
:1021E00095EA0C0F00F0A7F8A4EB050481EA030EB2
:1021F00052EA03354FEA013100F088804FEA033399
:102200004FF0805545EA131343EA12634FEA022266
:1022100045EA111545EA10654FEA00260EF0004127
:102220009D4208BF964244F1FD0404F5407402D279
:102230005B084FEA3202B61A65EB03055B084FEA0A
:1022400032024FF480104FF4002CB6EB020E75EB07
:10225000030E22BFB61A754640EA0C005B084FEA2F
:102260003202B6EB020E75EB030E22BFB61A7546AC
:1022700040EA5C005B084FEA3202B6EB020E75EBF7
:10228000030E22BFB61A754640EA9C005B084FEA6F
:102290003202B6EB020E75EB030E22BFB61A75467C
:1022A00040EADC0055EA060E18D04FEA051545EA6B
:1022B00016754FEA06164FEAC30343EA52734FEA14
:1022C000C2025FEA1C1CC0D111F4801F0BD141EA8D
:1022D00000014FF000004FF0004CB6E711F4801FF2
:1022E00004BF01430020B4F1FD0C88BFBCF5E06FD2
:1022F0003FF6AFAEB5EB030C04BFB6EB020C5FEAE2
:10230000500C50F1000041EB045170BD0EF0004E36
:102310004EEA113114EB5C04C2BFD4EB0C0541EA68
:10232000045170BD41F480114FF0000E013C90E665
:1023300045EA060E8DE60CEA135594EA0C0F08BF29
:1023400095EA0C0F3FF43BAF94EA0C0F0AD150EA28
:1023500001347FF434AF95EA0C0F7FF425AF1046BB
:1023600019462CE795EA0C0F06D152EA03353FF4E3
:10237000FDAE1046194622E750EA410618BF52EA60
:1023800043067FF4C5AE50EA41047FF40DAF52EA34
:1023900043057FF4EBAE12E74FF0FF3C06E000BFD1
:1023A0004FF0010C02E000BF4FF0010C4DF804CDDE
:1023B0004FEA410C7FEA6C5C4FEA430C18BF7FEA9E
:1023C0006C5C1BD001B050EA410C0CBF52EA430CCC
:1023D00091EA030F02BF90EA020F0020704710F14C
:1023E000000F91EA030F58BF994208BF90422CBFDB
:1023F000D8176FEAE37040F0010070474FEA410CD4
:102400007FEA6C5C02D150EA013C07D14FEA430CF1
:102410007FEA6C5CD6D152EA033CD3D05DF8040B62
:10242000704700BF8446104662468C461946634694
:1024300000E000BF01B5FFF7B7FF002848BF10F16B
:10244000000F01BD4DF808EDFFF7F4FF0CBF0120B0
:1024500000205DF808FB00BF4DF808EDFFF7EAFF2C
:1024600034BF012000205DF808FB00BF4DF808EDE7
:10247000FFF7E0FF94BF012000205DF808FB00BFDC
:102480004DF808EDFFF7CEFF94BF012000205DF866
:1024900008FB00BF4DF808EDFFF7C4FF34BF012073
:1024A00000205DF808FB00BF4FEA410212F5001260
:1024B00015D211D56FF47873B3EB625212D94FEA8B
:1024C000C12343F0004343EA505311F0004F23FA75
:1024D00002F018BF404270474FF00000704750EACA
:1024E000013005D111F0004008BF6FF00040704787
:1024F0004FF00000704700BF00B50A4C2668054643
:1025000085B01C46F06852B1074B02928DE80A0074
:1025100022462B46054900F013F803F07BFE044BDE
:102520001A46F2E73C000020A4A90000B4A900006C
:1025300038A9000013460A460146022003F0FEBDFA
:102540000EB410B583B005AB064C53F8042B0193C1
:102550000146206801F0DAFB03B0BDE8104003B08B
:10256000704700BF3C00002070B50F4E0F4D761B2A
:10257000B61018BF002405D0013455F8043B984725
:10258000A642F9D10A4E0B4D761B08F091FBB6100E
:1025900018BF002406D0013455F8043B9847A642E2
:1025A000F9D170BD70BD00BFBCAC0000BCAC000078
:1025B000D4AC0000BCAC000070B4860746D0541EFA
:1025C000002A41D0CAB2034602E014F1FF343BD3E3
:1025D00003F8012B9D07F8D1032C2ED9CDB245EA83
:1025E00005250F2C45EA054519D903F110022646A9
:1025F000103E0F2E42F8105C42F80C5C42F8085C6A
:1026000042F8045C02F11002F2D8A4F1100222F0A8
:102610000F0204F00F041032032C13440DD91E4690
:102620002246043A032A46F8045BFAD8221F22F015
:1026300003020432134404F003042CB1C9B21C4455
:1026400003F8011B9C42FBD170BC70471446034643
:10265000C2E700BF0FB400B5074983B004AB0868F8
:1026600053F8042B8168019302F0DAF903B05DF8A6
:1026700004EB04B0704700BF3C00002010B50C46CE
:10268000B1F90E1006F018FA002803DB236D03449D
:10269000236510BDA38923F48053A38110BD00BF1F
:1026A0002DE9F0411646B1F90C201F46D3050C4622
:1026B000054607D500220223B1F90E1005F054FAA1
:1026C000B4F90C20B4F90E1022F48052A2813B46DA
:1026D00032462846BDE8F04103F0B6BC10B50C46C2
:1026E000B1F90E1005F040FAA389421C0EBF23F485
:1026F000805343F480532065A38110BDB1F90E10BF
:1027000003F096BD00000000000000000000000083
:1027100000000000000000000000000000000000B9
:1027200000000000000000000000000000000000A9
:102730000000000000000000000000000000000099
:1027400090F800F06DE9024520F007016FF0000CF1
:1027500010F0070491F820F040F049804FF0000499
:102760006FF00700D1E9002391F840F000F1080074
:1027700082FA4CF2A4FA8CF283FA4CF3A2FA8CF3AC
:102780004BBBD1E9022382FA4CF200F10800A4FA13
:102790008CF283FA4CF3A2FA8CF3E3B9D1E9042367
:1027A00082FA4CF200F10800A4FA8CF283FA4CF39E
:1027B000A2FA8CF37BB9D1E9062301F1200182FA58
:1027C0004CF200F10800A4FA8CF283FA4CF3A2FA5E
:1027D0008CF3002BC6D0002A04BF04301A4612BA6C
:1027E000B2FA82F2FDE8024500EBD2007047D1E96F
:1027F000002304F00305C4F100004FEAC50514F0FE
:10280000040F91F840F00CFA05F562EA05021CBFCE
:1028100063EA050362464FF00004A9E72DE9F04F93
:10282000C3B00C460B9192460F930C9005F086F9BD
:1028300003681A931846FFF783FFA38919901906B6
:1028400003D52369002B01F0038000230DF1C80993
:102850001393159314932793269318931B9309931B
:10286000CDF89490C846169317939AF800305446C2
:10287000E3B1252B02D119E0252B03D014F8013F39
:10288000002BF9D1A4EB0A0585B1269B279AC8F83D
:1028900000A001332A44072BC8F80450279226933E
:1028A0007FDC08F10808099B2B4409932378002B4F
:1028B0007FD000231A468DF8773019460D939B463A
:1028C0004FF0FF3063780A9004F1010A0AF1010A1F
:1028D000A3F12000582800F2C183DFE810F038028D
:1028E000BF03BF034002BF03BF03BF03BF03BF0358
:1028F000BF0345020302BF035D006B02BF038602F4
:102900009D039D039D039D039D039D039D039D03C7
:102910009D03BF03BF03BF03BF03BF03BF03BF03C9
:10292000BF03BF03BF0337035703BF035703BF03EF
:10293000BF03BF03BF039803BF03BF03AD03BF03C0
:10294000BF03BF03BF03BF035902BF03BF031E037F
:10295000BF03BF03BF03BF03BF03BF03BF03BF0367
:10296000BF03BF03C602DB025703570357038B02A3
:10297000DB02BF03BF039002BF039D02CC01B40280
:102980000802BF03E101BF037E00BF03BF030D02C6
:102990000D980F9340420D904BF0040B9AF80030C5
:1029A00094E725AA0B990C9806F0A2FA40B9C846FC
:1029B00079E7279B23B10C980B9925AA06F098FA82
:1029C0000B9B9B8913F0400F099B18BF4FF0FF33FF
:1029D0000993099843B0BDE8F08F1BF0200F1193C5
:1029E00040F0DD810F9A1BF0100F134640F06E850A
:1029F0001BF0400F00F06A85148804320025012383
:102A00000F9200278DF877700A994A1C00F06582B2
:102A10002BF08002079254EA050240F064820029FC
:102A200040F03C84002B40F0D7841BF001030E9350
:102A300000F0048642AE302306F8413D0A9B0E9A10
:102A40009342B8BF134608930023129317B1089B13
:102A500001330893079B13F00203109302D0089BE5
:102A600002330893079B13F0840540F00E830D9BFF
:102A7000089AA3EB020BBBF1000F40F30683BBF1F6
:102A8000100F279C269A29DD43462146A846102789
:102A90000C9C0B9D06E0ABF1100BBBF1100F03F18A
:102AA000080318DD0132B74826921031072A279112
:102AB00083E88100EFDD25AA2946204606F018FAB2
:102AC00000287FF47DAFABF1100BBBF1100F2799FD
:102AD000269A4B46E6DC45460C4698460132A94B01
:102AE00026925C44072A279488E8080800F3988413
:102AF0009DF8777008F1080877B1269B01330134FF
:102B00000DF177010122072B2794269388E8060010
:102B100000F3DB8308F10808109B6BB1269B01339F
:102B200002341EA90222072B2794269388E8060068
:102B300000F3D68308F10808802D00F015830A9B66
:102B40000E9A9F1A002F36DD102F269B8E4D27DD03
:102B500042462146B0464FF0100B2E460C9C0B9D72
:102B600004E0103F102F02F1080215DD013310318F
:102B7000072B2791269382E84008F2DD25AA2946F3
:102B8000204606F0B5F900287FF41AAF103F102F49
:102B90002799269B4A46E9DC35460C464646904630
:102BA00001333C44072B2794269388E8A00000F3C8
:102BB000818308F10808079BDF0500F16882269BE6
:102BC0000E99C8F8006001330C44072B2794C8F80D
:102BD0000410269300F34D8308F10808079B5B0758
:102BE0003AD50D9B089A9D1A002D35DD102D269B98
:102BF00020DD10260C9FDDF82CB004E0103D102DD8
:102C000008F1080816DD01335E4A26931034072BBD
:102C1000279488E84400F1DD25AA5946384606F095
:102C200067F900287FF4CCAE103D102D279C269B21
:102C3000C846E8DC0133534A26932C44072B2794DB
:102C400088E8240008DD25AA0B990C9806F050F9B5
:102C500000287FF4B5AE279C099B0D9A08998A42FB
:102C6000ACBF9B185B180993002C40F00D83002328
:102C70002693C846F9E511931BF0200340F0E38149
:102C80001BF0100240F02E841BF0400300F02A8459
:102C90000F9913460A4604320C880F920025B0E6BD
:102CA0000F9A1193166800248DF87740151D002E99
:102CB00000F0A7860A9A531C00F009862146304688
:102CC00005F0A6FA002800F0E186831B0E930A9413
:102CD0000F95CDF81CB023EAE373089312949DF886
:102CE0007770B3E69AF8003001222B21EEE54BF025
:102CF000200B9AF80030E9E51193002A40F09587FF
:102D0000224B18931BF0200F40F011810F9A1BF0FB
:102D1000100F134640F0E1831BF0400F00F0DD83FD
:102D2000043314880F9300251BF0010F00F00C8171
:102D300054EA050300F0088130239DF844208DF803
:102D400078308DF879204BF0020B022359E69AF87F
:102D5000003000297FF4BAAD01222021B6E54BF006
:102D6000010B9AF80030B1E50F9C23680D931846CB
:102D70000028234603F10403FFF60AAE0F939AF8E6
:102D80000030A3E52CAA00003CAA00000CAA000019
:102D90004BF0100B1BF0200F11933FF423AE0F9D4F
:102DA000073525F0070303F10802D3E900450F9228
:102DB000012326E69AF800302A2B0AF1010400F0DC
:102DC0002787A3F130000928A24600F2AD86002330
:102DD0001C461AF8013B04EB840400EB4404A3F105
:102DE00030000928F5D90A9472E54BF0800B9AF867
:102DF00000306BE54BF0400B9AF8003066E59AF82E
:102E000000306C2B03BF9AF801304BF0200B0AF115
:102E1000010A4BF0100B59E5002A40F011871BF016
:102E2000200F40F0F9841BF0100F40F0AC841BF031
:102E3000400F00F0A8840F9A136804320F92BDF877
:102E400024201A8011E50F99B34B0C681893302297
:102E5000782304318DF8793011934BF0020B0F91E8
:102E600000258DF878200223CBE50F9911930A688D
:102E70008DF8A02000230A461F468DF877300432D3
:102E800001230893CDF81CB00A9712970F920E9366
:102E900028AEDFE51193002A40F0EA861BF0200FF0
:102EA0005DD11BF0100F40F008831BF0400F00F0C5
:102EB00004830F99B1F900400431E51722462B46EF
:102EC0000F91002A73F1000358DB0A999DF877707F
:102ED0004A1C4FF001037FF49BAD54EA050200F059
:102EE000DF81CDF81CB0012B00F07B82022B40F07B
:102EF000068218984E46230904F00F0143EA057331
:102F00002A091C461546435C06F8013D54EA0503B0
:102F1000F1D1A9EB06030E9390E51193002A40F03E
:102F2000A3867E4B18931BF0200F3FF4EFAE0F9D4E
:102F3000073525F0070303F108021BF0010F0F927C
:102F4000D3E900457FF4F4AE02235AE51193002A39
:102F500040F086864BF0100B1BF0200FA1D00F9D88
:102F6000073525F00705D5E90023002A05F10801FA
:102F70001D4673F100030F911446A6DA2D27644213
:102F800065EB45058DF8777001233DE51193002A27
:102F900040F062860F9D073525F0070303F1080214
:102FA0000F921A6815925B681493149B159D23F079
:102FB0000044284621464FF0FF32594B06F05EF997
:102FC000002840F04A83284621464FF0FF32544BF8
:102FD000FFF74CFA002840F0408315A80DC814995B
:102FE000FFF73AFA002840F030859DF877704D4E93
:102FF0004D4B2BF08000079011980322002108927E
:103000000A914728D8BF1E460E9212911EE54BF03A
:10301000080B9AF8003059E4A3F1300000231C4655
:103020001AF8013B04EB840400EB4404A3F13000E4
:103030000928F5D90D944BE44BF0100B11931BF0BC
:1030400020033FF41DAE0F9D073525F0070303F164
:103050000802D3E900450F920023D2E41193002A1D
:1030600040F0E785119A002A3FF4A3AC0023012128
:103070001F4608918DF8A020CDF81CB08DF8773050
:103080000A9312930E9128AEE4E4279C34E5119B39
:10309000652B40F3A78015A80DC81499FFF7D2F946
:1030A000002800F05081269B204AC8F800200133F8
:1030B00001340122072B27942693C8F8042000F33B
:1030C0006A8308F108081F9B139A279C934203DB2D
:1030D000079BDD077FF582AD269B19991A9AC8F8E0
:1030E000002001330C44072BC8F8041027942693C2
:1030F00000F39E8308F10808139B5E1E002E7FF7E5
:103100006DAD102E269B0A4D40F3F5812246102707
:10311000DDF830B00B9C13E00CAA0000F8A9000009
:10312000FFFFEF7FECA90000E8A9000028AA00003B
:103130003CAA000008F10808103E102E40F3DA8186
:1031400001331032072B2792269388E8A000F1DD87
:1031500025AA2146584605F0CBFE00287FF430AC66
:10316000279A269BC846E7E70D9B089A9F1A002FCF
:103170007FF7E5AC102F269BB64D27DD4246214652
:10318000B0464FF0100B2E460C9C0B9D04E0103FF8
:10319000102F02F1080215DD01331031072B2791A2
:1031A000269382E84008F2DD25AA2946204605F04C
:1031B0009FFE00287FF404AC103F102F2799269B18
:1031C0004A46E9DC35460C464646904601333C44C7
:1031D000072B2794269388E8A00000F3328208F199
:1031E0000808ACE4139B269F012B40F3FE810137B6
:1031F00001340123072F27942697C8F80060C8F8E8
:10320000043000F3038208F10808199A1A9BC8F8E1
:10321000003001371444072F27942697C8F804205C
:1032200000F3008208F1080815A80DC81499FFF7EB
:1032300009F9139B002840F00181013B0137013659
:103240001C44072F26972794C8F80060C8F804305C
:1032500000F3278108F108081B9AC8F804200137F9
:10326000144421AB072F27942697C8F800307FF726
:10327000B3AC25AA0B990C9805F03AFE00287FF410
:103280009FAB279CC846A9E425AA0B990C9805F08A
:103290002FFE00283FF4EBACFFF792BBDDF81CB02B
:1032A000012B00F03481022B25D1CDF81CB0002475
:1032B00000251EE625AA0B990C9805F019FE00289A
:1032C0007FF47EAB279CC84675E425AA0B990C9821
:1032D00005F00EFE00287FF473AB279CC8461BE464
:1032E00025AA0B990C9805F003FE00287FF468AB23
:1032F000279CC84620E4CDF81CB000240025494690
:1033000000E03146E20842EA4572E80804F00703AB
:1033100005461446303354EA050201F8013C01F138
:10332000FF36EED1079AD2077FF5F3AD302B3FF48D
:10333000F0AD0239302306F8013CA9EB01030E93EE
:103340000E46FFF77BBB1F99002940F32E82129B8C
:10335000139A9342A8BF1346002B1F460DDD269BF0
:10336000C8F8006001333C44072B2794C8F8047068
:10337000269300F31F8308F10808129B002FA8BFB3
:10338000DB1B002B1F4640F3D680102F269B314DB0
:1033900040F3ED8142462146B0464FF0100B2E46D9
:1033A0000C9C0B9D04E00832103F102F40F3DB8192
:1033B00001331031072B2791269382E84008F2DD74
:1033C00025AA2946204605F093FD00287FF4F8AA97
:1033D0002799269B4A46E7E70A9B0E934E46FFF73E
:1033E0002DBB002D08BF0A2CC0F08F804E46204612
:1033F00029460A22002305F057FF303206F8012D36
:103400002046294600230A2205F04EFF04460D46B9
:1034100054EA0503EBD1A9EB06030E93FFF70EBBAD
:1034200025AA0B990C9805F063FD00287FF4C8AA23
:103430009DF87770279CC846FFF75EBB5E1E002E86
:103440007FF70AAF102E034D22DD22464FF0100BFE
:103450000C9C06E03CAA0000103E102E08F1080863
:1034600015DD01371032072F2792269788E82008AC
:10347000F2DD25AA0B99204605F03AFD00287FF4DD
:103480009FAA103E102E279A269FC846E9DC1446B4
:1034900001373444072F2794269788E860007FF788
:1034A000D9AE25AA0B990C9805F022FD00287FF4CF
:1034B00087AA279C269FC846CEE60F9A1468134613
:1034C0000433E5170F9322462B46FAE404321C68B6
:1034D0000F9201230025FFF794BA1C6804330F9361
:1034E000002521E40F990A4604320C680F9200254A
:1034F000FFF787BA144601333444072B27942693E9
:1035000088E860007FF768ABB3E6DDF81CB0CDF863
:103510001CB042AE3034012306F8414D0E93FFF744
:103520008DBA25AA0B990C9805F0E2FC00287FF4CF
:1035300047AA279CC8461F9A139B9A4244DB079BC5
:10354000D90741D4139B12989A1A1D1A9542A8BF05
:103550001546002D0EDD2699C8F8045001310644A9
:103560002C440729C8F800602794269100F33B8279
:1035700008F10808002DACBF561B1646002E7FF739
:103580002DAB102E269BB04DB5DD22461027DDF861
:1035900030B00B9C04E008F10808103E102EA9DDA5
:1035A00001331032072B2792269388E8A000F2DD22
:1035B00025AA2146584605F09BFC00287FF400AA66
:1035C000279A269BC846E8E7269B19981A99C8F8B7
:1035D000001001330444072B2794C8F804002693F5
:1035E00000F3F58108F10808ACE7079BDA073FF51F
:1035F000FEAD013701340123072F27942697C8F821
:103600000060C8F804307FF725AE4AE725AA0B9979
:103610000C9805F06DFC00287FF4D2A9279C269F0A
:10362000C846F2E525AA0B990C9805F061FC002824
:103630007FF4C6A9279C269FC846F5E54E46FFF7AE
:10364000FDB925AA0B990C9805F052FC00287FF4CF
:10365000B7A9279CC846FFF772BA159C2246204698
:10366000149C2346214605F009FE002840F086827E
:103670000A9B0133119B23F020030E9300F0E2819B
:10368000472B00F01E814BF480730793149B1F1E81
:10369000159B0893BBBF3B4603F1004700232D2336
:1036A0001093119B662B00F0BB81462B00F0DF804E
:1036B0000E9B089A452B0CBF0A9B0A9D23A820A9A4
:1036C00008BF5D1C049003911FA802213B46029095
:1036D000019500910C9802F053FE119B672B064652
:1036E00040F0E0811BF0010F00F046827419169A39
:1036F0000898179B3946FEF7A5FE002840F0658123
:10370000239BA34206D230215A1C23921970239B7B
:103710009C42F9D89B1B13930E9B472B00F0E9802A
:10372000119B652B40F3CD81119B662B1F9B129340
:1037300000F09E81139B129A1946914200F38A81F0
:103740001BF0010F40F0138222EAE2730893672313
:103750000E921193109B002B40F0C4800A939DF8A9
:103760007770FFF773B935460C46464690460133ED
:103770003C44072B2794269388E8A0003FF7D1AE5E
:1037800008F10808D7E60F9A136804320F92099AD5
:103790001A60FFF76AB825AA0B990C9805F0A8FBE8
:1037A00000287FF40DA9C8468DE4269B274AC8F857
:1037B0000020013301340122072B27942693C8F8F7
:1037C000042072DC08F1080829B9139B1BB9079B78
:1037D000D8077FF503AA269B19981A9AC8F80020E3
:1037E000013302462244072B2792C8F8040026938F
:1037F00000F38D8108F108080029C0F26581139952
:10380000C8F8006001338C18072B27942693C8F85A
:1038100004107FF7E1A92CE50F9A09991368CD17D9
:103820000846043229460F92C3E90001FFF71DB88C
:1038300025AA0B990C9805F05BFB00287FF4C0A823
:10384000279CC84658E400BF3CAA000028AA0000F4
:1038500040210C9804F016FA0B9A106010610028B1
:1038600000F0F2810B9A40235361FEF7EEBF23A8CC
:1038700020A90A9C049003911FA803210290089A92
:1038800001943B4600910C9802F07AFD25460646CD
:10389000119B462B06EB05047FF429AF3378302BC0
:1038A00000F078811F9D2C4421E725AA0B990C98E4
:1038B00005F01EFB00287FF483A81F99279CC846AB
:1038C00082E70A9B002B08BF01230A93DBE6304600
:1038D0000A94FEF735FF0F950E90CDF81CB0034605
:1038E000FFF7F9B92D2700238DF877700A93FFF7BA
:1038F000AEB81F9B12931A46033304DB0A9B19468A
:103900009142BFF617AF119B023B11939DF84430D3
:103910008DF88430129B013B002B1F93BDBF129B7F
:10392000C3F101032D222B22092B8DF8852040F3B2
:1039300016810DF193042046AB4D00E0104685FB47
:103940000312D917C1EBA20101EB8102A3EB4202E2
:103950003032092900F8012C0B4600F1FF32EDDC72
:1039600030330238D9B2844202F8011C40F265813A
:103970000DF18600134601E013F8011B00F8011B4E
:10398000A342F9D101339B1A0DF18602134421AAF7
:103990009B1A139A1B93012A13440E9340F3198127
:1039A0000E9B199A13440E9323EAE37308930023A2
:1039B0001293CFE625AA0B990C9805F099FA0028E6
:1039C0007EF4FEAF279CC846D7E42346A2E625AA8C
:1039D0000B990C9805F08CFA00287EF4F1AF1F9A31
:1039E000279CC846AEE525AA0B990C9805F080FAED
:1039F00000287EF4E5AF1F9A139B279C9A1AC846AD
:103A0000B8E50A9B1296062B28BF06230A9637466E
:103A100008930F95CDF81CB00E93744EFFF716B8AF
:103A200023A820A90A9D049003911FA803210290B6
:103A3000089A01953B4600910C9802F0A1FC0646BD
:103A400044192BE706230A931DE62D278DF877707E
:103A5000FFF7CDBA199A139B1344129A0E93002ABA
:103A600040F3B08023EAE37308936723119371E670
:103A7000002B40F3C3800A9A002A40F099801BF083
:103A8000010F40F0958008930E9363E60A9B08931C
:103A90000E930A900F95CDF81CB012909DF8777098
:103AA000FEF7D4BF119B472B7FF420AE1BF0010F14
:103AB0007FF4EEAE239B9B1B13930E9B472B3FF48F
:103AC00018AF1F9B129321E74F421031484D2FDA58
:103AD0001024DDF830B004E008F10808103F102F82
:103AE00026DD01331032072B27922693C8F80050A9
:103AF000C8F80440F0DD25AA0B99584605F0F8F9FE
:103B000000287EF45DAF279A269BC846E6E725AAE3
:103B10000B990C9805F0ECF900287EF451AF1F9931
:103B2000279A269BC84667E600200A90FEF7D0BE7B
:103B300001333A44072B88E8A0002792269308F126
:103B400008087FF75CAE25AA0B990C9805F0D0F910
:103B500000287EF435AF279A269BC8464FE63033BF
:103B600030228DF887308DF8862022AB0FE7129B2C
:103B7000199A13440E9375E7239BCBE5149B1D4EB6
:103B8000002BB6BF2D279DF877708DF877701A4BF4
:103B9000FFF72FBA169A0898179B3946FEF752FC82
:103BA00000287FF47FAEC5F101051F952C449EE5EA
:103BB000129B199A13440A9A1A4422EAE2730E924B
:103BC0000893C7E5129B0E9AC3F101031A441346EA
:103BD000D0E71BF0010312937FF4E2AE0E9B23EAC1
:103BE000E3730893B6E500BF6766666620AA000027
:103BF0003CAA0000F4A90000F0A900000A9B13B938
:103C00001BF0010F02D0199B0133D4E701233AE7DF
:103C10000F9D9AF80130286840EAE0700A90284623
:103C20000430A2460F90FEF751BE8DF87710FFF7D3
:103C300067B88DF87710FFF715BA0DF18603A6E681
:103C40008DF87710FFF7EBB80C9A0C2313604FF048
:103C5000FF330993FEF7BDBE8DF87710FFF79AB9D1
:103C60008DF87710FFF776B98DF87710FFF759B90F
:103C70008DF87710FFF712B92DE9F84F4B6E9C04C1
:103C800093462FD59368126853B30E46074602F148
:103C9000080919E920045FEA9A0817D0043D0024B6
:103CA00001E0A04510D0324655F8041F384603F015
:103CB0002BFC431C04F10104F3D10023CBF80830A2
:103CC000CBF80430BDE8F88FDBF808302AF0030A9F
:103CD000A3EB0A03CBF8083009F10809002BD8D16F
:103CE0000020EAE703F07AFD0023CBF80830CBF898
:103CF0000430BDE8F88F00BF93680BB1FFF7BCBF7D
:103D000010B41846536010BC704700BF2DE9F04F47
:103D1000ADB01D468B4690460793069018B1836B55
:103D2000002B00F0F380DBF86430BBF90C00DF07F8
:103D300081B202D48E0540F1FC808C040AD4DBF8F9
:103D4000643040F4005123F40053ABF80C10CBF86E
:103D5000643089B2080740F1B380DBF81030002BE3
:103D600000F0AE8001F01A030A2B00F0B5800023AA
:103D70000DF170090B93119310930393CDF83C90C0
:103D8000CA46CDF810B098F800304446FBB1252B58
:103D900002D11CE0252B03D014F8013F002BF9D1F0
:103DA000A4EB08059DB1109B119ACAF8008001335D
:103DB0002A44072BCAF80450119210937ADD002A86
:103DC00040F0B084039B10922B44CA46039323789F
:103DD000002B00F0E08300204FF000038DF8373017
:103DE00004F1010862780546064603464FF0FF34A9
:103DF00008F10108A2F12001582900F2DE82DFE873
:103E000011F02102DC02DC022902DC02DC02DC020D
:103E1000DC02DC02DC0289029502DC02A200BD02A7
:103E2000DC029F01A401A401A401A401A401A40136
:103E3000A401A401A401DC02DC02DC02DC02DC023D
:103E4000DC02DC02DC02DC02DC02B201DC02DC02AD
:103E5000DC02DC02DC02DC02DC02DC02DC02DC0272
:103E60009701DC02DC02DC02DC02DC029B01DC02EA
:103E7000DC025302DC02DC02DC02DC02DC02DC02DB
:103E8000DC02DC02DC02DC025A021B02DC02DC0285
:103E9000DC026E021B02DC02DC027302DC02F501B2
:103EA00082010902D702DC029A02DC02A700DC02CE
:103EB000DC022E020AF1080A039B2B44039386E7D7
:103EC0005946069802F0D6F818BBBBF80C1001F062
:103ED0001A030A2B7FF44BAFBBF90E30002BFFF611
:103EE00046AFDBF86430DB0705D48F0503D4DBF87D
:103EF000580003F037FE2B4642465946069800F01C
:103F00004DFD039003982DB0BDE8F08F03F05AFAF1
:103F100009E7DBF86430D90704D4BBF80C309A0504
:103F200040F1AA844FF0FF33039303982DB0BDE80E
:103F3000F08FDBF8580003F013FEBBF90C0081B2E0
:103F4000FBE67642079243F0040398F800204FE71F
:103F500008969E0600F150840799DD060A4600F196
:103F6000EF83580640F1EC830E88043100270122CC
:103F700007914FF000018DF837100025611C00F00B
:103F8000168123F08001029156EA070140F0148166
:103F9000002C40F05C83002A40F0B78313F001034B
:103FA000059300F057840DF1B00B30230BF8413D21
:103FB000059BA342B8BF234601930DB10133019382
:103FC000029B13F00203099302D0019B0233019379
:103FD000029B13F084030A9340F01782089B019A16
:103FE0009D1A002D40F31182102D40F39084109BF8
:103FF000119AC44ED6461027A2461946069C07E0E1
:1040000001F1020C0EF1080E0146103D102D11DDDC
:10401000481C1032072811928EE8C0001090EFDD86
:10402000002A40F0E481103D102D11464FF0010CA4
:10403000CE46EDDC54466146F2462A4407291192E9
:10404000CAF80060CAF80450109100F3EC829DF8A1
:1040500037500AF1080A481C002D40F0DE81099B08
:10406000002B00F0F88102320EA9022307281192DA
:1040700010908AE80A0040F3EA81002A40F08C831D
:104080000A9B802B4FF001001146CA4640F0E781A1
:10409000089B019D5E1B002E40F3E181102E9A4D7E
:1040A00040F35084D4461027A246069C07E001F155
:1040B000020E0CF1080C0146103E102E11DD481CBA
:1040C0001032072811928CE8A0001090EFDD002A32
:1040D00040F09D82103E102E4FF0010E1146CC464E
:1040E000EDDC5446E2463244BEF1070F11928AE8F5
:1040F0006000CDF840E000F369830AF1080A0EF190
:1041000001007146ABE1089613F0200240F08C8369
:1041100013F0100140F01A8313F0400200F01683F0
:1041200007980A460146043106880791002720E7D0
:10413000089643F01003E7E7089643F0100308E7FA
:1041400043F0800398F8002052E6A2F130010026E7
:1041500018F8012B06EB860601EB4606A2F13001AA
:104160000929F5D946E60896002840F0088443F06E
:1041700010039E0600F14C83DD0600F1F382580621
:1041800040F1F082079DB5F900602A46F717043226
:10419000304639460792002871F10002C0F25D8373
:1041A000611C9DF837504FF001027FF4EAAE56EAE9
:1041B000070100F04D820293012A00F08C82022A4E
:1041C00040F05C820B98CB46330906F00F0143EABE
:1041D00007733A091E461746435C0BF8013D56EA41
:1041E0000703F1D1A9EB0B030593E1E6002840F0AA
:1041F000C083990600F16783DA0600F1F1805B065F
:1042000040F1EE80079A136804320792BDF80C2043
:104210001A80B8E507983D4A08960B9206687822FE
:10422000302104308DF8392043F002030790002735
:104230008DF8381002229CE60896002899D08DF857
:10424000375096E798F80020002D7FF4D1AD01207B
:104250002025CDE543F0010398F80020C8E5089635
:10426000002840F0938329490B919F0600F1E882D2
:104270000798DE06014600F170825D0640F16D820E
:104280000431068807910027D80740F1228256EAB8
:10429000070100F01E8230218DF8392043F002031F
:1042A0008DF83810022264E60896002840F06B83EF
:1042B00017490B91D9E7079908960A688DF84820A5
:1042C0004FF000000A468DF83700043201200190BB
:1042D000079205900DF1480B0293002470E643F01D
:1042E000400398F8002083E598F800206C2A03BF6B
:1042F00098F8012043F0200308F1010843F010036F
:1043000076E500BF4CAA00005CAA00000CAA0000E1
:10431000F8A9000007990E680A46002E02F104026F
:10432000FFF60FAE079298F8002061E598F800209C
:1043300001202B255CE507990896D1F800B04FF0D5
:1043400000028DF837200E1DBBF1000F00F0E58252
:10435000671C00F0C482224600215846019303F0F6
:1043600057FF019B002800F0E582A0EB0B020592AD
:10437000079602939DF83750002419E698F800201C
:104380002A2A08F1010700F0E982A2F13001092987
:10439000B8464FF000043FF62DAD18F8012B04EBA2
:1043A000840401EB4404A2F130010929F5D921E587
:1043B00043F0200398F800201AE50896002840F002
:1043C000DB82002A00F0E78001218DF848204FF0C1
:1043D000000201918DF8372005910DF1480B7BE724
:1043E000079A136804320792039A1A60CBE40FAA63
:1043F00004992046FFF740FC002840F039811099CD
:10440000119A01F1010CCE46FFE51099119A481C52
:104410009DF83750002D3FF422AE01320DF13705E3
:104420000121072811921090CAF80050CAF8041010
:1044300040F30881002A40F0BC81099B002B3FF427
:104440001FAE0EAB022208461C931D92CA460146BF
:104450000AF1080A01300A9B802B3FF419AE059B34
:10446000E41A002C2EDD102CB34D1EDDD64610268E
:10447000069FDDF810A006E0881C0EF1080E194614
:10448000103C102C10DD4B1C1032072B11928EE8C3
:1044900060001093F0DD002A65D1103C102C4FF025
:1044A00001001146CE46EEDCF24622440728119266
:1044B000CAF80050CAF80440109000F385800AF151
:1044C000080A01300599CAF800B00A440728119279
:1044D000CAF80410109040F38280002A40F018813E
:1044E000029B1092580735D5089B01995C1A002C45
:1044F00040F3E780CA46102C40F3188210998F4E83
:10450000069FDDF810B0102506E0881C0AF1080AA5
:104510001946103C102C11DD4B1C1032072B119248
:10452000CAF80060CAF804501093EEDD42BB103C9C
:10453000102C4FF001001146CA46EDDC224407283A
:104540001192CAF80060CAF80440109051DD002AA8
:1045500040F09B81039B089A01998A42ACBF9B184B
:104560005B1803934EE00FAA51463846FFF784FBD1
:10457000002840F03F811099119A481CCE467FE7F1
:104580000FAA59463846FFF777FB60B91099119A80
:10459000481CCA46BDE7119BDDF810B0002B40F067
:1045A000D48100231093DBF8643013F0010FBBF8C3
:1045B0000C3002D19A0540F1DE805B063FF5B2ACCB
:1045C00003982DB0BDE8F08F002A40F00681059ACF
:1045D0001D9201231192CDF870B01093CA460AF1D2
:1045E000080A029B590704D5089B01995C1A002C04
:1045F00081DC039B089901988142ACBF5B181B18B2
:10460000039372BB00231093CA46FFF7BCBB0FAAEB
:1046100004992046FFF730FB50BB1099119A01F125
:10462000010ECC4648E5002A40F040819DF8371045
:10463000002900F01B8101220DF1370110461D9267
:104640001C91CA4601460AF1080A013007E5029B9F
:10465000012A00F09880022A0DD10293002600273B
:10466000B0E50FAA04990698FFF706FB0028C9D009
:10467000DDF810B097E7029300260027494600E0D6
:104680005946F20842EA4772F80806F0070307465F
:104690001646303356EA070201F8013C01F1FF3BB0
:1046A000EED1029AD6077FF59DAD302B3FF49AAD3F
:1046B000023930230BF8013CA9EB010305938B462B
:1046C00076E4039B089A8A42ACBF9B185B1803935D
:1046D00098E702224DE4002F08BF0A2E52D3CB46A2
:1046E000304639460A22002304F0DEFD30320BF852
:1046F000012D3046394600230A2204F0D5FD064636
:104700000F4656EA0703EBD16CE50594CB464FE420
:104710000FAA04990698FFF7AFFA0028A8D1119ABA
:10472000CA465EE70FAA04990698FFF7A5FA002883
:104730009ED1CA46FFF7C0BB5CAA00004CAA00008D
:104740000431166807910122002712E407980146F8
:1047500004310668079100270BE40E6804310791C5
:10476000002791E507990E680A46F7170432079269
:10477000304639460FE5DBF8580003F0F3F9BBF893
:104780000C301AE7029B02930DF1B00B3036012377
:104790000BF8416D05930BE40FAA04990698FFF7F7
:1047A0006BFA00287FF464AF1099119A481CCA462E
:1047B00051E60FAA04990698FFF75EFA00287FF4E5
:1047C00057AF1099119A481CCA4648E4002A40F095
:1047D000918001201146CA4641E60FAA0499069825
:1047E000FFF74AFA00287FF443AF1098119A01307E
:1047F000CA4667E6D346D6E6079E073626F0070286
:1048000002F10801D2E9006707910122FFF7B1BB6D
:10481000079E073626F00706D6E9000106F10802D2
:10482000079206460F46B6E4079E073626F00702B3
:1048300002F10801D2E9006707910022FFF799BB56
:10484000079E073626F0070101F108000790D1E91D
:10485000006719E5CB46FFF7ABBB2D25764267EB2A
:1048600047078DF837500122FFF788BB099BB3B982
:1048700011460120CA46F2E5DBF8580003F072F950
:104880004FF0FF330393FFF750BB0FAA049906982C
:10489000FFF7F2F900287FF4EBAE119AA9E60EAB10
:1048A00002221C931D920120CA46D0E50FAA04994A
:1048B0000698FFF7E1F900287FF4DAAE1099119A13
:1048C000481CCA46A4E5079A03991368CD17084601
:1048D000043229460792C3E90001FFF754BA58464B
:1048E00007960293FDF72CFF002405909DF83750A2
:1048F000FFF75EBB0FAA04990698FFF7BDF90028E1
:104900007FF4B6AE1099119A481CCA46A7E51099D3
:10491000119A204E0131FFF790BB062C28BF0624C8
:10492000059407960194DFF870B0D5E41098194EFD
:10493000013003E605949DF837500796029304462C
:10494000FFF736BB8646FFF7CEBB06980FAA59463F
:10495000FFF792F900283FF424AE24E6079998F86F
:1049600001200C68043144EAE474B8460791FFF76B
:104970003FBA8DF837503CE48DF8375021E58DF87B
:104980003750FFF7F4BB8DF8375091E48DF837506E
:1049900069E400BF4CAA000020AA00002DE9F04104
:1049A0000C46ADF58D6D8989666EE589199621F005
:1049B00002010646E069ADF80C1017464FF480611D
:1049C000626AADF80E5098461AAD0023079016A8FB
:1049D00009920693009504950291059103F0BCF8A5
:1049E00043463A4669463046FFF790F9051E07DB15
:1049F0003046694602F08EFC002818BF4FF0FF35A4
:104A0000BDF80C305B0603D5A38943F04003A381B6
:104A1000169803F0A3F828460DF58D6DBDE8F081DA
:104A20002DE9F04FC1B01D468A46914604460890D4
:104A300003F084F8036815931846FDF781FE0E9580
:104A400014901CB1A36B002B00F05F82DAF8643085
:104A5000BAF90C2013F0010F93B202D1990540F17D
:104A600075829F040AD4DAF8641042F4005321F4EA
:104A70000051AAF80C30CAF864109BB21E0740F12E
:104A80002382DAF81020002A00F01E8203F01A02B6
:104A90000A2A00F03E8200231846119313931293C2
:104AA00025932493189319930B9330AB2393984633
:104AB00016901790CDF828A099F800304C46EBB12D
:104AC000252B02D11AE0252B03D014F8013F002B2F
:104AD000F9D1A4EB09058DB1249B259AC8F8009063
:104AE00001332A44072BC8F804502592249300F37D
:104AF000018208F108080B9B2B440B932378002BB1
:104B000000F0F08300231A468DF86F3019460C939D
:104B10009B4666784FF0FF3304F10109099309F1D0
:104B20000109A6F12003582B00F2BF83DFE813F040
:104B3000E002BD03BD034F03BD03BD03BD03BD03C1
:104B4000BD03BD0354030803BD031A02E802BD03FD
:104B500003033A033A033A033A033A033A033A03A4
:104B60003A033A03BD03BD03BD03BD03BD03BD034B
:104B7000BD03BD03BD03BD0349036203BD0362035F
:104B8000BD03BD03BD03BD03A203BD03BD036F0091
:104B9000BD03BD03BD03BD03BD035900BD03BD037C
:104BA0001E03BD03BD03BD03BD03BD03BD03BD03A4
:104BB000BD03BD03BD0324037302620362036203EA
:104BC000B7027302BD03BD03BC02BD03C90271007D
:104BD0000D034702BD035202BD035B00BD03BD03CD
:104BE0001F024BF0100B1BF0200F40F053830E9A66
:104BF0001BF0100F134640F0B4851BF0400F00F07F
:104C0000B08514880432002501230E9214E04BF085
:104C1000100B1BF0200340F032831BF0100240F019
:104C200089851BF0400300F085850E9913460A46DE
:104C300004320C880E9200254FF0000A8DF86FA008
:104C400009994A1C00F00B822BF08002069254EA6C
:104C5000050240F00A82002940F06F84002B40F0EA
:104C60002D851BF001030D9300F0688640AF3023C3
:104C700007F8413D099B0D9A9342B8BF134607932D
:104C800000231093BAF1000F02D0079B0133079362
:104C9000069B13F002030F9302D0079B0233079386
:104CA000069B13F0840540F01B830C9B079AA3EB33
:104CB000020BBBF1000F40F31383BBF1100F2599DA
:104CC000249A28DD43461024A846DDF820A00A9D3A
:104CD00006E0ABF1100BBBF1100F03F1080318DD78
:104CE0000132B94824921031072A259183E8110036
:104CF000EFDD23AA29465046FEF7FEFF002840F0CC
:104D00006A83ABF1100BBBF1100F2599249A30ABDD
:104D1000E6DC454698460132AB4B24920BEB01048E
:104D2000072A259488E8080800F3CD849DF86FA031
:104D300008F10808BAF1000F0ED0249B01330134AA
:104D40000DF16F010122072B2594249388E80600BA
:104D500000F30A8408F108080F9B6BB1249B013310
:104D600002341CA90222072B2594249388E806000C
:104D700000F3068408F10808802D00F02E83099BBB
:104D80000D9AA3EB020ABAF1000F3BDDBAF1100F46
:104D9000249B8E4D2BDD42462146B0464FF0100B32
:104DA0002E46089C0A9D06E0AAF1100ABAF1100FDF
:104DB00002F1080217DD01331031072B25912493EE
:104DC00082E84008F0DD23AA29462046FEF794FF3A
:104DD000002840F00083AAF1100ABAF1100F2599BB
:104DE000249B30AAE7DC35460C4646469046013304
:104DF0005444072B2594249388E8200400F3A983C6
:104E000008F10808069BDB0500F18582249B0D99BB
:104E1000C8F8007001330C44072B2594C8F804101F
:104E2000249300F3758308F10808069B59073BD5C6
:104E30000C9B079A9D1A002D36DD102D249B21DD39
:104E40001026089FDDF828A004E0103D102D08F181
:104E5000080817DD01335C4A24931034072B25948E
:104E600088E84400F1DD23AA51463846FEF744FFA6
:104E7000002840F03F82103D102D259C249B0DF111
:104E8000C008E7DC0133504A24932C44072B2594B7
:104E900088E8240008DD23AA0A990898FEF72CFF69
:104EA000002840F04783259C0B9B0C9A07998A4267
:104EB000ACBF9B185B180B93002C40F0338300238E
:104EC00024930DF1C008F7E55146089801F0D2F897
:104ED000002838D0DAF86430DD0704D4BAF80C3092
:104EE0009C0540F1CA854FF0FF330B930B9841B0FE
:104EF000BDE8F08F23AA0A990898FEF7FDFE002866
:104F000040F018830DF1C008F5E5089802F05AFA50
:104F10009CE5BAF90E20002AFFF6BDADDAF8642050
:104F2000D00705D4990503D4DAF8580002F01AFE28
:104F30002B464A465146089801F01EF80B900B98F4
:104F400041B0BDE8F08FBAF80C309FE5DAF85800B0
:104F500002F006FEBAF90C2093B282E50C980E938B
:104F600040420C904BF0040B99F80060D7E5002A02
:104F700040F0DF87164B18931BF0200F40F0B984E8
:104F80000E9A1BF0100F134640F0DC831BF0400F0D
:104F900000F0D883043314880E9300251BF0010F12
:104FA00000F0228354EA050300F01E8330238DF8BD
:104FB00070308DF871604BF0020B02233CE64BF031
:104FC000200B99F80060AAE56CAA00007CAA0000FA
:104FD0000CAA00000E9A176800248DF86F40151D6A
:104FE000002F00F04E86099A531C00F0CC85214614
:104FF000384603F00DF9002800F09786C31B0D9387
:1050000009940E95CDF818B023EAE3730793109432
:105010009DF86FA036E6002A40F096871BF0200F1F
:1050200040F05A841BF0100F40F0A2831BF0400F99
:1050300000F09E830E99B1F900400431E517224635
:105040002B460E91002A73F10003C0F28784099960
:105050009DF86FA04A1C4FF001037FF4F5AD54EAB0
:10506000050200F06C82CDF818B0012B00F0088327
:10507000022B40F09582189830AF230904F00F01FD
:1050800043EA05732A091C461546435C07F8013DAF
:1050900054EA0503F1D130ABDB1B0D93EAE54BF08D
:1050A000400B99F800603AE599F800606C2E03BF58
:1050B00099F801604BF0200B09F101094BF0100B3E
:1050C0002DE5002A40F04C871BF0200F40F03F8573
:1050D0001BF0100F40F0FC801BF0400F00F0F88038
:1050E0000E9A136804320E92BDF82C201A80E3E465
:1050F00099F8006000297FF412AD012220210EE50D
:1051000099F800602A2E09F1010000F0F186A6F15D
:105110003003092B814698BF002000F23D8619F824
:10512000016B00EB800003EB4000A6F13003092B7C
:10513000F5D90990F5E44BF0800B99F80060EEE4A6
:1051400099F8006001222B21E9E40E9AAE4B146815
:1051500018937826302304328DF870304BF0020B10
:105160000E9200258DF87160022365E5002A40F05B
:10517000E486A64B1893FFE60E99CDF818B00A689E
:105180008DF8982000230A469A468DF86F30043235
:1051900001230793CDF824A0CDF840A00E920D93E3
:1051A00026AF75E5A6F13003002019F8016B00EB7E
:1051B000800003EB4000A6F13003092BF5D90C90D9
:1051C000AFE4002A40F0C8864BF0100B26E74BF006
:1051D000010B99F80060A2E40E9C23680C9318461A
:1051E0000028234603F10403FFF6B8AE0E9399F8A6
:1051F000006094E4002A40F0B7860E9D073525F044
:10520000070303F108020E921A6813925B68129367
:10521000129B139D23F00044284621464FF0FF3295
:105220007B4B04F02BF8002840F0A283284621464F
:105230004FF0FF32764BFDF719F9002840F09883C4
:10524000169A1398179B1299FDF706F9002840F05B
:1052500035849DF86FA06F4F6F4B032200212BF018
:105260008000079209910690472ED8BF1F460D92E5
:10527000109107E54BF0080B99F800604FE40E9D84
:10528000073525F0070303F10802D3E900450E9224
:105290000023D1E40E9D073525F0070303F1080232
:1052A000D3E900450E920123C6E4002A40F050865F
:1052B000C6B1002301229A4607928DF89860CDF876
:1052C00018B08DF86F30099310930D9226AFDFE47C
:1052D0000E9A136804320E920B9A1A60FFF7ECBB19
:1052E000259C27E5259BDDF828A0002B40F0948520
:1052F00000232493DAF8643013F0010FBAF80C306D
:1053000002D19A0540F149825B063FF5ECAD0B985E
:1053100041B0BDE8F08F652E40F3B280169A139825
:10532000179B1299FDF78EF8002800F06081249BEE
:105330003A4AC8F80020013301340122072B259492
:105340002493C8F8042000F3BF8308F108081D9BCC
:10535000119A259C934203DB069BDF077FF565AD21
:10536000249B1499159AC8F8002001330C44072B8C
:10537000C8F804102594249300F3F88308F1080872
:10538000119B5E1E002E7FF750AD102E249B244DE6
:1053900040F3DD811027DDF820A0DDF828B005E01E
:1053A00008F10808103E102E40F3D181013310346B
:1053B000072B2594249388E8A000F1DD23AA594601
:1053C0005046FEF799FC002840F0CD83259C249B95
:1053D0000DF1C008E6E7AA468CE70C9B079AA3EB01
:1053E000020ABAF1000F7FF7CAACBAF1100F249B82
:1053F0000B4D39DD42462146B0464FF0100B2E468C
:10540000089C0A9D15E000BF0CAA0000F8A9000046
:10541000FFFFEF7FECA90000E8A9000028AA000028
:105420007CAA0000AAF1100ABAF1100F02F10802DA
:1054300016DD01331031072B2591249382E84008B3
:10544000F0DD23AA29462046FEF756FC0028C2D1EB
:10545000AAF1100ABAF1100F2599249B30AAE8DCB2
:1054600035460C464646904601335444072B259456
:10547000249388E8200400F3648208F108087EE49D
:10548000119B249E012B40F3FD8101360134012341
:10549000072E25942496C8F80070C8F8043000F34D
:1054A0000E8208F10808149A159BC8F800300136DE
:1054B0001444072E25942496C8F8042000F32E8265
:1054C00008F10808179B169A13981299FCF7BAFF6F
:1054D000119B002840F00681013B013601371C4436
:1054E000072E24962594C8F80070C8F8043000F3FD
:1054F000D98108F10808199AC8F804200136144423
:105500001FAB072E25942496C8F800307FF78BAC8C
:1055100023AA0A990898FEF7EFFB58B9259C0DF1CC
:10552000C00882E423AA0A990898FEF7E5FB002840
:105530003FF4C5ACDDF828A0DCE6DDF818B0012B9F
:1055400000F02181022B27D1CDF818B000240025CE
:1055500091E523AA0A990898FEF7CEFB0028E9D125
:10556000259C0DF1C0084DE423AA0A990898FEF77E
:10557000C3FB0028DED1259C0DF1C008FFF7ECBB72
:1055800023AA0A990898FEF7B7FB0028D2D1259CD8
:105590000DF1C008FFF7F0BBCDF818B000240025CE
:1055A00030A900E03946E20842EA4572E80804F012
:1055B000070305461446303354EA050201F8013C5E
:1055C00001F1FF37EED1069AD2077FF564AD302B9B
:1055D0003FF461AD3023023907F8013C30AB5B1A70
:1055E0000D930F46FFF746BB0223FFF725BB1D991E
:1055F000002940F37482109B119A9342A8BF13466E
:10560000002B1E460DDD249BC8F800700133344486
:10561000072B2594C8F80460249300F3248308F131
:105620000808109B002EA8BF9B1B002B1E4640F3B2
:10563000D080102E249BC04D40F3B78022464FF0FF
:10564000100ADDF820B00A9C05E008F10808103EB9
:10565000102E40F3A98001331032072B259224939A
:1056600088E82004F1DD23AA21465846FEF744FBD2
:10567000002840F02483259A249B0DF1C008E6E71A
:10568000002D08BF0A2C7CD330AF204629460A22C1
:10569000002303F009FE303207F8012D2046294689
:1056A00000230A2203F000FE04460D4654EA0503D7
:1056B000EBD130ABDB1B0D93FFF7DCBA099B0D93ED
:1056C00030AFFFF7D7BA23AA0A990898FEF714FB60
:1056D00000287FF42FAF9DF86FA0259C0DF1C00826
:1056E000FFF728BB5F1E002F7FF705AF102F924DED
:1056F00040F30A814FF0100ADDF820B005E008F110
:105700000808103F102F40F3FF8001361034072E99
:105710002594249688E82004F1DD23AA0A995846A6
:10572000FEF7EAFA00287FF405AF259C249E0DF1D0
:10573000C008E6E70E990A4604320C680E9200256E
:10574000FFF77ABA1C6804330E93002526E4013370
:105750003444072B2594249388E860007FF763ABDB
:10576000D6E604321C680E9201230025FFF764BAC6
:105770000E9A146813460433E5170E9322462B46FF
:1057800060E4DDF818B0CDF818B040AF3034012334
:1057900007F8414D0D93FFF76DBADAF8580002F0A3
:1057A000E1F9BAF80C30AFE5144601333444072B65
:1057B0002594249388E8600040F36D8123AA0A9918
:1057C0000898FEF799FA00287FF4B4AE259C0DF1F5
:1057D000C0081D9B119A934280F25881249A149814
:1057E0001599C8F8001001320444072A2594C8F816
:1057F0000400249200F3528108F10808119A1099CC
:10580000D31A561A9E42A8BF1E46002E0EDD249AB9
:10581000C8F8046001320F443444072AC8F8007005
:105820002594249200F33C8208F10808002EACBFB6
:105830009E1B1E46002E7FF7F8AA102E249B3E4D7D
:1058400085DD1027DDF820A0DDF828B005E008F19F
:105850000808103E102E7FF77AAF01331034072B63
:105860002594249388E8A000F1DD23AA59465046E8
:10587000FEF742FA002840F07681259C249B0DF12A
:10588000C008E6E7069BD8073FF5FFAD01360134B7
:105890000123072E25942496C8F80070C8F8043018
:1058A0007FF727AE23AA0A990898FEF725FA002861
:1058B0007FF440AE259C249E0DF1C0081BE623AA70
:1058C0000A990898FEF718FA00287FF433AE259C51
:1058D000249E0DF1C008E6E50E9D073525F007056D
:1058E000D5E9002305F108010E9114461D46FFF786
:1058F000A9BB0E9D073525F0070303F108020E92A0
:10590000D3E90045FFF74ABB01363C44072E2594F6
:10591000249688E8A0007FF7ECADC3E723AA0A9994
:105920000898FEF7E9F900287FF404AE259C249E30
:105930000DF1C008C6E500BF7CAA000030AFFFF73C
:1059400099B923AA0A990898FEF7D6F900287FF496
:10595000F1AD259C0DF1C008FFF711BA4FF02D0AEB
:10596000644265EB45058DF86FA00123FFF768B928
:10597000139C22462046129C2346214603F07EFCBF
:10598000002840F08C82099B013326F020030D9300
:1059900000F09180472B04D1099B002B08BF012305
:1059A00009934BF480730693129BB3F1000A139B87
:1059B0000793BBBF534603F1004A00232D23662EF5
:1059C0000F9300F07F81462E00F0D4810D9B079A43
:1059D000452B0CBF099B099D21A81EA908BF5D1C72
:1059E000049003911DA80221029053460195009155
:1059F000089800F0C5FC672E074640F0AF811BF009
:105A0000010F00F013827C19169A0798179B5146D4
:105A1000FCF718FD002840F03281219BA34206D2FA
:105A200030215A1C21921970219B9C42F9D8DB1B12
:105A300011930D9B472B00F0B980652E40F37682C1
:105A40001D9B1093662E00F06281119B109A1946DF
:105A5000914200F34F811BF0010F40F0098222EACE
:105A6000E27307930D9267260F9B002B40F0968000
:105A700009939DF86FA0FFF705B9DAF8580002F016
:105A800071F84FF0FF330B93FFF730BA069AD50742
:105A90007FF5B4AEA2E608F108089AE623AA0A99AF
:105AA0000898FEF729F900287FF444AD1D9B259C3A
:105AB0000DF1C008A2E60623099372E74FF02D0A04
:105AC0008DF86FA0FFF7C7BB23AA0A990898FEF7C5
:105AD00013F900287FF42EAD0DF1C00837E4249BA4
