:10000000A0FE00208D9500008995000089950000D4
:100010008995000089950000899500000000000086
:1000200000000000000000000000000089950000B2
:10003000899500000000000089950000D141000072
:100040008995000089950000899500008995000038
:100050008995000089950000899500008995000028
:100060008995000089950000899500008995000018
:10007000899500008995000005ED00008995000034
:10008000DDEC00008995000089950000899500004D
:1000900089950000899500008995000089950000E8
:1000A00089950000899500008995000089950000D8
:1000B00089950000899500008995000089950000C8
:1000C00089950000899500008995000089950000B8
:1000D00089950000899500008995000089950000A8
:1000E00089950000899500000000000000000000D4
:1000F00000000000899500008995000089950000A6
:100100008995000089950000899500008995000077
:100110008995000089950000899500008995000067
:1001200089950000899500007DEC000095EC0000A9
:10013000ADEC0000C5EC0000899500008995000039
:10014000899500008995000025EC00003DEC000039
:100150004DEC000065EC0000000000000000000015
:10016000000000000000000000000000000000008F
:10017000000000000000000000000000000000007F
:1001800089950000899500008995000089950000F7
:100190000000000089950000899500008995000005
:1001A00089950000899500008995000089950000D7
:1001B00089950000899500008995000089950000C7
:1001C00089950000899500008995000089950000B7
:1001D00089950000899500008995000089950000A7
:1001E000899500008995000089950000211501007E
:1001F0002964000049640000E56901008995000058
:1002000089950000000000000000000089950000B2
:100210008995000089950000899500008995000066
:100220008995000089950000899500008995000056
:100230008995000089950000899500008995000046
:100240008995000089950000899500008995000036
:100250008995000089950000899500008995000026
:100260000000000010B5054C237833B9044B13B1DE
:100270000448AFF300800123237010BD000A002062
:10028000000000008C3203000C4B43B10C480D49B8
:1002900010B5AFF300800C48036823B910BD0A48BD
:1002A000036833B97047094B002BF7D0BDE8104005
:1002B0001847064B002BF5D0184700BF0000000080
:1002C0008C320300040A00208C320300000000007E
:1002D00080B582B000AF87ED010A97ED010A044BAB
:1002E0009847F0EE407AB0EE670A0837BD4680BD09
:1002F000A59D020080B400AF4FF0505307EE903A36
:10030000B0EE670ABD465DF8047B704780B52DED01
:10031000028B82B000AF87ED010AC7ED000A97EDAE
:10032000017AD7ED007A77EE677AB0EEE78A094B6B
:100330009847F0EE407AB4EEE78AF1EE10FA4CBF3F
:1003400001230023DBB218460837BD46BDEC028B03
:1003500080BD00BFF502000080B584B000AFF8603A
:1003600087ED020AC7ED010A87ED001A97ED001A22
:10037000D7ED010A97ED020AF868044B9847F0EEB2
:10038000407AB0EE670A1037BD4680BD4D090000C7
:1003900080B483B000AF78607B684FF000021A60D1
:1003A0007B684FF000025A607B684FF000029A6051
:1003B0007B6818460C37BD465DF8047B704700002B
:1003C00080B582B000AF78607B6818460D4B9847C7
:1003D0007B680C3318460B4B98477B6818331846DC
:1003E000084B98477B6824331846064B98477B6830
:1003F00038331846034B98477B6818460837BD4684
:1004000080BD00BF9103000080B582B000AF78606E
:100410007B681846194B98477B680C331846174B76
:1004200098477B6818331846144B98477B682833E5
:100430001846134B98477B68903318460F4B9847E4
:100440007B689C3318460D4B98477B68002283F8E5
:100450006C207B684FF00002C3F88C207B689033DF
:100460001846084B98477B689C331846054B9847BD
:100470007B6818460837BD4680BD00BF9103000069
:10048000C1030000A109000080B483B000AF786010
:100490007B6818460C37BD465DF8047B704700004A
:1004A000F0B585B000AF786039603B6807EE903AF0
:1004B000B8EE677ADFED706AC7EE267AC7ED037A89
:1004C0006E4BF86898476E4C4FF000026D4BA0479A
:1004D00003460C461D462646684BF8689847024678
:1004E0000B46674C28463146A04703460C46194642
:1004F0002246654B0846114698470346BB60634B4E
:1005000093F8033203F02003DBB2002B0FD05F4BD4
:1005100093F8033203F04003DBB2002B07D05B4BB0
:1005200093F8033223F07F03DBB2002B02D178680B
:10053000574B98477868574B98470346002B26D06F
:10054000524A92F806326FF3C30382F806327B6890
:1005500093F86C3043F00103DAB27B6883F86C20C7
:100560007B6893ED0C7A494BB3F91C304A4A82FB05
:1005700003129210DB17D31A1BB207EE903AF8EE73
:10058000E77A77EE277A7B68C3ED0C7A0FE07B6819
:1005900093F86C3023F00103DAB27B6883F86C20A7
:1005A0003A4A92F8063243F0080382F806323B4892
:1005B0003B4B98470346002B18D07B6893F86C3070
:1005C00043F00203DAB27B6883F86C20334BD3F834
:1005D00094207B681A66314BD3F898207B685A6662
:1005E0002E4BD3F89C207B689A6608E07B6893F8D2
:1005F0006C3023F00203DAB27B6883F86C20294B5D
:10060000DA6D1E4B1046984705460E467B689A6A7F
:100610001A4B104698471A4C15A3D3E90023A0475C
:1006200003460C4644EC173BB0EE470AF0EE670A6F
:100630001D4B984753EC102B1C4C28463146A047C5
:1006400003460C46194622460F4B0846114698476A
:1006500002467B68C3F88C207B68124A9C33583270
:1006600007CA83E8070000BF1437BD46F0BD00BFCE
:10067000379D52A246DF913F00247449DDDE02001F
:1006800085DF02000000E03F75E5020080230020C6
:1006900045080000B106000067666666A4270020D2
:1006A000D5D0000050370020D1900200D9E10200DF
:1006B00080B582B000AF78602A482B4B984703463C
:1006C000002B42D02748294B9847F0EE407A7B68B0
:1006D000C3ED0C7A2348264B9847F0EE407A7B68AE
:1006E000C3ED0A7A1F48234B9847F0EE407A7B68A7
:1006F000C3ED0B7A1B48204B984703461A467B688C
:10070000A3F8582017481D4B984703461A467B68A4
:1007100083F85A207B684C331846194B98477B68FE
:1007200040331846164B98477B6834331846144BB1
:100730009847144A92F806326FF3C30382F80632E0
:100740000848114B9847012307E00E4A92F80632F9
:1007500043F0080382F80632002318460837BD46E6
:1007600080BD00BF1C0A0020D134000069380000A1
:1007700097380000BB380000DF380000C93A00009D
:10078000A1090000802300201939000080B483B043
:1007900000AF78607B68D3F88C3007EE903AB0EE0B
:1007A000670A0C37BD465DF8047B704780B483B0A0
:1007B00000AF78607B681B6B07EE903AB0EE670A7B
:1007C0000C37BD465DF8047B704780B483B000AF42
:1007D00078607B689B6A07EE903AB0EE670A0C3748
:1007E000BD465DF8047B704780B483B000AF78608D
:1007F0007B68DB6A07EE903AB0EE670A0C37BD46BD
:100800005DF8047B704780B483B000AF78607B688C
:10081000D3ED0C7AFCEEE77A17EE902A642303FB03
:1008200002F318460C37BD465DF8047B704780B470
:1008300083B000AF786000BF0C37BD465DF8047B25
:100840007047000080B582B000AF78602248234B2B
:1008500098472148224B98470346002B07D0214A4E
:1008600092F8033243F0400382F8033206E01D4A57
:1008700092F803326FF3861382F8033216481A4B4C
:1008800098470346002B07D0164A92F8033243F0EC
:10089000200382F8033206E0124A92F803326FF323
:1008A000451382F803320C48104B98470346002B3F
:1008B00007D00C4A92F8033243F0800382F80332E7
:1008C00006E0084A92F803326FF3C71382F8033246
:1008D00000BF0837BD4680BD1C0A00204938000013
:1008E000813A000080230020993A0000B13A0000CC
:1008F00080B582B000AF78600448054B9847F0EEB1
:10090000407AB0EE670A0837BD4680BD1C0A002059
:10091000F738000080B582B000AF7860084B1B78D4
:1009200083F00103DBB2002B05D0054B01221A70C6
:100930000448054B984700BF0837BD4680BD00BF3F
:10094000990A00201C0A0020B136000080B485B04E
:1009500000AFF86087ED020AC7ED010A87ED001AC3
:1009600097ED027AD7ED017AB4EEE77AF1EE10FA5C
:1009700001D57B680BE097ED027AD7ED007AB4EEF3
:10098000E77AF1EE10FA01DD3B6800E0BB6807EEA4
:10099000903AB0EE670A1437BD465DF8047B7047A5
:1009A00080B483B000AF78607B684FF000029A603B
:1009B0007B689A687B685A607B685A687B681A60B3
:1009C00000BF0C37BD465DF8047B704780B582B030
:1009D00000AF87ED010AD7ED017AF5EEC07AF1EEAE
:1009E00010FA02D8DFED067A05E097ED010A054B13
:1009F0009847F0EE407AB0EE670A0837BD4680BDF2
:100A000000000000D102000080B483B000AF87ED89
:100A1000010AD7ED017AF0EEE77A9FED087AF4EE5D
:100A2000C77AF1EE10FA4CBF01230023DBB218465F
:100A30000C37BD465DF8047B704700BF00000034F2
:100A400080B582B000AF786039607B68012B0CD133
:100A50003B684FF6FF72934207D10648064B984712
:100A6000064A07490348074B984700BF0837BD4669
:100A700080BD00BF1C0A0020C53700000000002018
:100A800029380000B9B2010080B500AF4FF6FF7100
:100A90000120014B984780BD410A000080B483B01B
:100AA00000AF78607B68002BB8BF5B4218460C37FC
:100AB000BD465DF8047B704780B483B000AF7860BA
:100AC0007A6892F8443043F0010382F8443000BF62
:100AD0000C37BD465DF8047B7047000080B584B0DC
:100AE00000AF78607B6800221A707B684FF00002CC
:100AF000DA607B6800221A747B6800225A747B6873
:100B0000143318460B4B98477B685C331846094BE7
:100B100098477B6803F1BC024FF00003FB6007F1CC
:100B20000C0319461046044B98477B68184610374B
:100B3000BD4680BDC92E0100992D010080B582B04F
:100B400000AF78607B68BC331846084B98477B68D9
:100B50005C331846064B98477B6814331846044BA1
:100B600098477B6818460837BD4680BDB92D0100FF
:100B7000132F010080B582B000AF78607B6803F16D
:100B80005C00284BD3F88130264AD2F885202549CD
:100B9000D1F889109FED244ADFED243AB2EE043AF1
:100BA000DFED222AB7EE002ADFED201A01EE101A3F
:100BB00000EE902A00EE103A1D4B98477B6803F137
:100BC0001400184BD3F85D30164AD2F8612015494D
:100BD000D1F865109FED144ADFED143AB2EE043AF5
:100BE000DFED122AB7EE002ADFED121A01EE101A1D
:100BF00000EE902A00EE103A0D4B98477B680E4AA3
:100C0000C3F8C4207B684FF000025A607B680B4A2F
:100C10009A607B680A4AC3F8C82000BF0837BD46FF
:100C200080BD00BF802300200AD7A33C0000000045
:100C300097330100CDCC4C3ECDCCCC3D00004040A4
:100C40000000344380B52DED028B88B000AFF86012
:100C500087ED020AC7ED010A07F1140318464D4B50
:100C60009847F8684C4B9847034683F00103DBB282
:100C7000002B0CD1494BD3F8FD3000EE103A484B15
:100C80009847034683F00103DBB2002B01D0012318
:100C900000E00023002B02D097ED028A6BE007F101
:100CA0001403B7EE001ADFED3F0A97ED010A18466C
:100CB0003D4B984787ED010AFB68D3F8A430FB61F0
:100CC000FB68BA68C3F8A420F868334B984703461A
:100CD00083F00103DBB2002B04D0F868334B984754
:100CE00087ED070AD7ED027AB0EEE77AFB68D3ED1D
:100CF000297AF0EEE77AB4EEE77AF1EE10FA0BD546
:100D0000FB68D3ED017AB0EE670A254B984703469E
:100D1000002B01D0012300E00023002B09D0FB6849
:100D200093ED017AD7ED017A67EE277AC7ED067A5F
:100D300008E0FB6893ED027AD7ED017A67EE277A37
:100D4000C7ED067A97ED077AD7ED067A77EE676AF0
:100D500097ED077AD7ED067A77EE277A07F1140335
:100D6000B0EE671AF0EE660A97ED020A18460E4BCF
:100D70009847B0EE408A07F1140318460C4B984789
:100D8000F0EE487AB0EE670A2037BD46BDEC028B24
:100D900080BD00BF2DF90000D1100000802300208D
:100DA0004515000000000000590300001911000063
:100DB00043F9000090B58BB000AF786187ED040A6D
:100DC000C7ED030A87ED021AC7ED011A396007F172
:100DD000180318466B4B984707F11803B7EE001A33
:100DE000DFED690A97ED010A1846684B984787EDD1
:100DF000010A7869664B984787ED070A7869654B61
:100E00009847034683F00103DBB2002B0CD07B69CB
:100E10005C331846604B98477B695C3318465F4BE0
:100E200098477B69FA69DA605D485E4B98470246ED
:100E30007B69C3F8A820D7ED010A97ED040A786909
:100E4000594B9847F0EE407A7B69C3ED037A7B6992
:100E50005C3397ED010A1846544B98474FF0000356
:100E60007B6297ED030A524B98470346002B08D04C
:100E700097ED020A4E4B98470346002B01D0012301
:100E800000E00023002B0BD0D7ED026AD7ED037AE8
:100E900086EEA77AD7ED047A67EE277AC7ED097A4E
:100EA0007B6903F15C027B691B7C002B03D17B69AE
:100EB0005B7C002B01D0012300E000231946D7ED15
:100EC000070A97ED040A10463A4B984787ED080A3F
:100ED0007B695C331846384B9847B0EE407AD7EDC3
:100EE000087A77EE877AC7ED087A97ED087AD7ED1A
:100EF000097A77EE277AC7ED087A7B6900221A749F
:100F00007B6900225A747B691B7883F00103DBB292
:100F1000002B28D0D7ED047AF5EEC07AF1EE10FA66
:100F20000DDBD7ED087AF5EEC07AF1EE10FA06D8AF
:100F30004FF000033B627B6901221A7413E0D7ED86
:100F4000047AF5EEC07AF1EE10FA0CD8D7ED087AF3
:100F5000F5EEC07AF1EE10FA05DB4FF000033B62CC
:100F60007B6901225A743B683A6A1A60012407F1CE
:100F700018031846114B9847234618462C37BD4690
:100F800090BD00BF2DF900000000000059030000D3
:100F900019110000D1100000B90A00007B330100D4
:100FA0005C23002095420000450C0000292F010021
:100FB00045150000B92F01005533010043F9000029
:100FC00080B58CB000AF786187ED040AC7ED030AE5
:100FD00087ED021A79603748374B9847B8627B69CA
:100FE000D3F8C030002B09D07B69D3F8C030BA6A7F
:100FF000D31AB3F5967F01D2012300E0002387F8CE
:101000002F30D7ED020A9FED2D0A78692C4B9847B7
:1010100087ED090A78692B4B984787ED080A97ED09
:10102000090A294B98470346002B0FD0D7ED087AC1
:10103000B0EEE77A7B69D3ED317AF0EEE77AB4EE81
:10104000E77AF1EE10FA01D8012300E00023002B2B
:1010500002D0012387F82F307B6897F82F201A7071
:101060007B681B78002B0AD07B69BA6AC3F8C02062
:101070007B69BA6AC3F8A8204FF0000312E07B69CD
:101080000022C3F8C02007F11C031946D7ED021A4D
:1010900097ED031AD7ED040A97ED090A78690B4B0F
:1010A0009847FB6907EE903AB0EE670A3037BD46C5
:1010B00080BD00BF5C2300209542000000000000BE
:1010C000450C000019110000090A0000B50D0000D0
:1010D00080B582B000AF78607B68D3F8A830002B71
:1010E00009D00B480B4B984702467B68D3F8A830D1
:1010F000D31AC82B01D9012300E00023002B01D013
:10110000002300E0012318460837BD4680BD00BF1C
:101110005C2300209542000090B587B000AF786056
:101120004FF00003FB600023FB752B482B4B9847C7
:10113000F0EE407AC7ED027A294B93F80A3203F0B9
:101140001003DBB2002B2FD02648274B98470446CC
:101150002648274B98470346E31A1846254B9847DD
:1011600038613869244B9847024642F228339A4244
:10117000D4BF01230023DBB2002B09D01B4BB3F8F3
:10118000663007EE903AF8EE677AC7ED037A09E029
:10119000164BB3F866305B4207EE903AF8EEE77A0A
:1011A000C7ED037A0123FB75FB7D002B0CD097ED77
:1011B000037AD7ED027AB4EEE77AF1EE10FA01DDA8
:1011C000FB6800E0BB68BB60BB6807EE903AB0EE1E
:1011D000670A1C37BD4690BD50370020FDEB00006C
:1011E00080230020FC26002007080000A427002000
:1011F00029D10000C1FA00009D0A000080B586B028
:1012000000AFF86087ED020A0B46C7ED000AFB71DC
:10121000FB68BA68C3F8B420F8680E4B984787EDAE
:10122000050AD7ED050A97ED020AF8680A4B9847B8
:1012300087ED040AFB79D7ED000A194697ED040AF9
:10124000F868064B9847F0EE407AB0EE670A183718
:10125000BD4680BD1911000061120000C9120000D6
:1012600080B584B000AFF86087ED020AC7ED010ACF
:10127000D7ED017AF0EEE77AB7EE007AF4EEC77AAE
:10128000F1EE10FA0CD597ED010A0C4B9847034686
:10129000002B02D00A4B7B6002E04FF07E537B6054
:1012A00097ED027AD7ED017AC7EE276AF0EE667AFB
:1012B000B0EE670A1037BD4680BD00BF791500004B
:1012C000000080BF00000000F0B58BB000AFF860F8
:1012D00087ED020A0B46C7ED000AFB7107F1140304
:1012E0001846874B9847D7ED027AF5EE407AF1EE33
:1012F00010FA02D14FF00004F1E007F11403B7EE49
:10130000001ADFED800A97ED000A18467E4B9847D9
:1013100087ED000A7D487E4B98477862FB68D3F8DA
:10132000B030002B06D0FB68D3F8B0307A6AD31AFD
:10133000C82B11D9FB6814331846764B9847FB68C5
:1013400014331846744B98477448754B9847F0EE21
:10135000407AFB68C3ED2E7AFB687A6AC3F8B02046
:10136000FB68D3ED327AB0EE670A6E4B98470346BE
:10137000002B3CD0FB68D3F8C8206B4B1046984735
:101380006A4C5DA3D3E90023A04703460C461D46E3
:101390002646654B3868984702460B46634C2846FC
:1013A0003146A04703460C4619462246604B084684
:1013B0001146984703463B62FB6893ED2E7AD7EDC2
:1013C000087A77EE676AFB6893ED2E7AD7ED087A94
:1013D00077EE277A07F11403B0EE671AF0EE660A8B
:1013E00097ED020A1846484B984787ED020AFB68BA
:1013F000BA68C3F8B820FB68D3ED337AB0EE670A59
:10140000484B98470346002B2BD0FB68D3F8CC20E1
:10141000454B10469847454C37A3D3E90023A047D6
:1014200003460C4619462246414B0846114698474A
:101430000346FB61FB6893ED2E7AD7ED077AF1EE58
:10144000677A07F1140397ED071AF0EE670AB0EE1A
:10145000470A18462C4B9847F0EE407AFB68C3EDDC
:101460002E7A2E482E4B984787ED060AFB681433D8
:1014700097ED000A18462F4B9847FB6803F11402BA
:10148000FB68D3ED2E7AFB791946D7ED060AB0EE4C
:10149000670A1046284B9847F0EE407AC7ED047A69
:1014A000FB6814331846254B9847B0EE407AD7EDC9
:1014B000047A77EE877AC7ED047AD7ED047A07F1DC
:1014C0001403B7EE001AFFEE000AB0EE670A1846E2
:1014D0000D4B9847F0EE407AC7ED047A3C6907F16E
:1014E00014031846164B984707EE904AB0EE670A69
:1014F0002C37BD46F0BD00BF379D52A246DF913F5D
:101500002DF9000000000000590300005C230020BA
:1015100095420000B90A00007B330100FC26002040
:10152000F108000045150000DDDE020085DF020045
:1015300075E50200292F0100B92F01005533010084
:1015400043F9000080B483B000AF87ED010AD7ED06
:10155000017A9FED087AF4EEC77AF1EE10FAACBF8B
:1015600001230023DBB218460C37BD465DF8047B2F
:10157000704700BF0000003480B483B000AF87ED37
:10158000010AD7ED017A9FED087AF4EEC77AF1EE01
:1015900010FA94BF01230023DBB218460C37BD4676
:1015A0005DF8047B704700BF000000B480B584B0D4
:1015B00000AF786039607B68012B11D13B684FF632
:1015C000FF7293420CD1084BFB6007F10C031946E4
:1015D0000648074B9847074A07490448074B98476E
:1015E00000BF1037BD4680BD000020409C0A00208F
:1015F000992D010000000020B92D0100B9B20100B1
:1016000080B500AF4FF6FF710120014B984780BDB8
:10161000AD150000B0B582B000AF87ED010A3860AB
:101620000D4B7868984704460D460C4B3868984730
:1016300002460B4643EC112B45EC104B084B9847E8
:10164000B0EE407AF0EE607AB0EE470AF0EE670A4C
:101650000837BD46B0BD00BFDDDE0200B9DE0200C6
:10166000A994020080B582B000AF87ED010A022084
:1016700097ED010A074B984752EC101B064B0846A2
:1016800011469847034607EE903AB0EE670A0837CE
:10169000BD4680BD1516000075E5020080B582B01C
:1016A00000AF78607B6800225A607B682033184660
:1016B0000B4B98477B680022DA627B68303300214D
:1016C0001846084B98477B68074A9A607B684FF03A
:1016D0008042DA607B6818460837BD4680BD00BF8F
:1016E00091030000ED1700000000404080B483B07B
:1016F00000AF78607B6818460C37BD465DF8047B08
:10170000704780B483B000AF786000BF0C37BD462F
:101710005DF8047B7047000080B582B000AF786050
:101720000F4B93F8083203F00203DBB2002B03D017
:1017300078680C4B98470FE07B68143319460A48C9
:101740000A4B98470346002B03D07B6800221A748B
:1017500002E07B6801221A7400BF0837BD4680BDD5
:1017600080230020891700007C3400204DD4000025
:1017700080B489B000AFF860B96087ED010A243702
:10178000BD465DF8047B704780B582B000AF7860DD
:101790000B4B1B78002B0CD0012B00D00CE0786891
:1017A000084B98470346002B05D0054B00221A70C2
:1017B00001E000BF00E000BF00BF0837BD4680BDAC
:1017C000A30A0020C917000080B582B000AF78607E
:1017D00000210448044B9847012318460837BD46AA
:1017E00080BD00BF78330020492B010080B485B054
:1017F00000AF786039607B680022DA607B68002285
:101800001A610023FB60FB68022B11DC7B68FA681D
:10181000396843F822107B68DA687B68F96853F806
:1018200021301A447B68DA60FB680133FB60EAE729
:101830007B6818461437BD465DF8047B704700008E
:1018400080B582B000AF786039607B68012B0CD125
:101850003B684FF6FF72934207D10648064B984704
:10186000064A07490348074B984700BF0837BD465B
:1018700080BD00BFA00A00209D18000000000020CD
:10188000B3180000B9B2010080B500AF4FF6FF7188
:101890000120014B984780BD4118000080B483B0FF
:1018A00000AF78607B6818460C37BD465DF8047B56
:1018B000704780B483B000AF78607B6818460C37FF
:1018C000BD465DF8047B704780B582B000AF78609C
:1018D00078680C4B98477B6800221A707B6801225D
:1018E000DA707B6800221A717B68002283F8252059
:1018F0007B68002283F826207B6818460837BD469F
:1019000080BD00BF1D1A000080B483B000AF7860B6
:101910007B6818460C37BD465DF8047B70470000B5
:1019200080B584B000AF78600B46FB701346BB7087
:101930000023FB73FB7B0F2B0BDCFB7B7A685B00CC
:1019400013445B79FA789A4216D0FB7B0133FB7320
:10195000F0E77B6893F824301A46BB789A420CDA99
:101960007B68BA7883F824207B68FA7883F8232090
:101970007868034B984700E000BF1037BD4680BD34
:101980005B1A000080B485B000AF78600023FB7361
:10199000FB7B0F2B0DDCFB7B7A685B0013445B79D0
:1019A0003C2B01D1FB7B05E0FB7B0133DBB2FB73FE
:1019B000EEE7002318461437BD465DF8047B7047F8
:1019C00080B584B000AF78600B46FB700023FB73DA
:1019D000FB7B0F2B1CDCFB7B7A685B0013445B7981
:1019E000FA789A4210D1FB7B7A685B00134400229C
:1019F0009A71FB7B7A685B0013443C225A717868C9
:101A0000054B984700BF03E0FB7B0133FB73DFE727
:101A100000BF1037BD4680BD5B1A000080B485B0A2
:101A200000AF78600023FB73FB7B0F2B0FDCFB7B8D
:101A30007A685B00134400229A71FB7B7A685B0032
:101A400013443C225A71FB7B0133FB73ECE700BF6C
:101A50001437BD465DF8047B704780B485B000AF95
:101A600078600023FB73FB7B0F2B4EDC0023BB73E2
:101A7000BA7BFB7BC3F10F039A423FDABB7B7A68E8
:101A80005B0013449B797B73BB7B01337A685B00FB
:101A900013449B793B737A7B3B7B9A422ADABB7B6C
:101AA00001337A685B0013445B79FB72BB7B591C82
:101AB000BB7B7A685B00134458797A684B00134407
:101AC00002465A71BB7B591CBB7B7A685B0013448E
:101AD00098797A684B00134402469A71BB7B7A6806
:101AE0005B001344FA7A5A71BB7B7A685B0013443B
:101AF0003A7B9A71BB7B0133BB73B9E77B680122E8
:101B00001A71FB7B0133FB73ADE700BF1437BD4691
:101B10005DF8047B704780B483B000AF78607B6869
:101B20005B7918460C37BD465DF8047B70470000B2
:101B3000B0B584B000AFF8600B467A60FB72FB7AF8
:101B4000FA685B0013445B793C2B00F2D38201A25C
:101B500052F823F0D91D0000E51C0000F71C00001E
:101B60000D1D0000311D0000431D0000C9200000B4
:101B7000C9200000B5200000B5200000F5200000BD
:101B8000F5200000F5200000F52000004B200000AB
:101B9000731C00008D1C0000A71C0000BB1C000073
:101BA000CF1C000031200000551D00006B1D0000FF
:101BB000971D0000B11D00007D1D0000C51D000027
:101BC0005D1C0000F5200000F5200000F31D000062
:101BD000B91F0000D31F0000F52000005D1C0000AD
:101BE000172000005D200000752000008920000003
:101BF000A1200000F5200000F520000003200000D7
:101C00001F1D0000491C00000D1E0000251E0000C5
:101C10003D1E0000551E00006D1E0000851E0000C8
:101C20009D1E0000B51E0000CD1E0000E51E000038
:101C3000FD1E00000F1F0000211F0000ED1F00000F
:101C4000F5200000E12000007B68BA4A1C461546DA
:101C50000FCD20606160A260E36052E27B68B64A0B
:101C60001C46134607CB20606160A2601B7823737B
:101C700047E27B68B14A1C46134607CB206061608F
:101C8000A2601A889B78A281A3733AE27B68AC4A6F
:101C90001C46134607CB20606160A2601A889B78BF
:101CA000A281A3732DE27B68A64A1C4615460FCD80
:101CB00020606160A260E36023E27B68A24A1C4668
:101CC00015460FCD20606160A260E36019E27B6879
:101CD0009E4A1C46134607CB20606160A2601B78B9
:101CE00023730EE27B689A4A1C46134607CB20609A
:101CF0006160A26005E27B68964A1C46134607CBEA
:101D000020606160A2601B782373FAE17B68924ACD
:101D10001C46134607CB20606160A260F1E17B683E
:101D20008E4A1C46134607CB20606160A260E8E142
:101D30007B688B4A1C46134607CB20606160A2601B
:101D4000DFE17B68864A1C46134607CB2060616052
:101D5000A260D6E17B68834A1C46134607CB20600D
:101D60006160A2601B782373CBE17B687E4A1C46CE
:101D7000134607CB20606160A260C2E17B687B4AAA
:101D80001C46134607CB20606160A2601A889B78CE
:101D9000A281A373B5E17B68754A1C46134607CB45
:101DA00020606160A2601A889B78A281A373A8E179
:101DB0007B68704A1C4615460FCD20606160A260AA
:101DC000E3609EE17B686C4A1C4615460FCD20609F
:101DD0006160A260E36094E17B68684A1C46134638
:101DE00007CB20606160A2601A889B78A281A373F0
:101DF00087E17B68624A1C46134607CB206061601E
:101E0000A2601A889B78A281A3737AE17B685D4AFD
:101E10001D4614460FCC28606960AA60EB602378E9
:101E20002B746EE17B68584A1D4614460FCC28601F
:101E30006960AA60EB6023782B7462E17B68534A87
:101E40001D4614460FCC28606960AA60EB602378B9
:101E50002B7456E17B684E4A1D4614460FCC286011
:101E60006960AA60EB6023782B744AE17B68494A79
:101E70001D4614460FCC28606960AA60EB60237889
:101E80002B743EE17B68444A1D4614460FCC286003
:101E90006960AA60EB6023782B7432E17B683F4A6B
:101EA0001D4614460FCC28606960AA60EB60237859
:101EB0002B7426E17B683A4A1D4614460FCC2860F5
:101EC0006960AA60EB6023782B741AE17B68354A5D
:101ED0001D4614460FCC28606960AA60EB60237829
:101EE0002B740EE17B68304A1D4614460FCC2860E7
:101EF0006960AA60EB6023782B7402E17B682B4A4F
:101F00001C46134607CB20606160A260F9E07B6845
:101F1000274A1C46134607CB20606160A260F0E0B0
:101F20007B68244A1C46134607CB20606160A26090
:101F3000E7E000BFCCFA0200DCFA0200ECFA020093
:101F4000FCFA02000CFB02001CFB02002CFB02004E
:101F50003CFB020048FB020058FB020064FB02004D
:101F600070FB02007CFB02008CFB020098FB02006D
:101F7000A8FB0200B8FB0200C8FB0200D8FB02006D
:101F8000E8FB0200F8FB02000CFC020020FC02004F
:101F900034FC020048FC02005CFC020070FC020001
:101FA00084FC020098FC0200ACFC0200C0FC0200B1
:101FB000CCFC0200D8FC02007B68544A1C46134645
:101FC00007CB20606160A2601A889B78A281A3730E
:101FD00097E07B684E4A1C46134607CB2060616041
:101FE000A2601A889B78A281A3738AE07B68494A21
:101FF0001C46134607CB20606160A2601B88A3814A
:102000007FE07B68444A1C4615460FCD2060616026
:10201000A260E36075E07B68404A1C46134607CB2C
:1020200020606160A2601A889B78A281A37368E037
:102030007B683B4A1C46134607CB20606160A26068
:102040001A889B78A281A3735BE07B68354A1C46A3
:10205000134607CB20606160A26052E07B68324A81
:102060001D4614460FCC28606960AA60EB60237897
:102070002B7446E07B682D4A1C4615460FCD206028
:102080006160A260E3603CE07B68294A1D4614461B
:102090000FCC28606960AA60EB6023782B7430E075
:1020A0007B68244A1C4615460FCD20606160A26003
:1020B000E36026E07B68204A1C4615460FCD206071
:1020C0006160A260E3601CE07B681C4A1D46144608
:1020D0000FCC28606960AA60EB6023782B7410E055
:1020E0007B6817491A460B4603CB106051601B886A
:1020F000138106E0FB7A1A4612497868124B98471A
:1021000000BF00BF1037BD46B0BD00BFE4FC0200F9
:10211000F4FC020004FD020014FD020024FD020094
:1021200034FD020044FD020050FD020064FD020087
:1021300074FD020088FD020098FD0200A8FD020067
:10214000BCFD0200C8FD020031C0010080B483B0B4
:1021500000AF78607B6818460C37BD465DF8047B9D
:10216000704780B483B000AF78607B6818460C3746
:10217000BD465DF8047B704790B583B000AF7860D2
:102180000123052200210848084CA047002305220E
:1021900000210548064CA0477B6800221A7000BF4A
:1021A0000C37BD4690BD00BF5823002051500000A1
:1021B0005551000080B584B000AF78600023FB600B
:1021C000FB68312B0ADC0748074B98470121074879
:1021D000074B9847FB680133FB60F1E700BF1037FE
:1021E000BD4680BDDC350020F52100005C230020C9
:1021F0005943000090B583B000AF78607B681B78CE
:10220000002B09D00023052200210A480A4CA047D0
:102210007B6800221A7008E001230522002105488E
:10222000054CA0477B6801221A7000BF0C37BD46E1
:1022300090BD00BF582300205551000080B582B0EA
:1022400000AF78607868094B98477B680022A3F854
:1022500026227868064B98477B68002283F8302353
:102260007B6818460837BD4680BD00BFB922000014
:10227000FD32000080B483B000AF78607B68184600
:102280000C37BD465DF8047B7047000080B582B016
:1022900000AF78600548064B98477868054B98472B
:1022A000034618460837BD4680BD00BFB00A00206F
:1022B0008D390100FD22000080B582B000AF78604A
:1022C0007B6803F203230A2200211846094B984732
:1022D000094A92F8053243F0080382F805327A6819
:1022E00092F8093243F0800382F8093200BF0837C0
:1022F000BD4680BDD5BB01008023002080B584B0E1
:1023000000AF78600123FB7378683A4B9847034627
:1023100083F00103DBB2002B0BD07A6892F806320F
:1023200043F0010382F806327868334B9847002364
:10233000FB737868314B9847034683F00103DBB2A7
:10234000002B0CD07A6892F8053243F0800382F8B3
:102350000532012178682A4B98470023FB7378687F
:10236000284B9847034683F00103DBB2002B0CD0C7
:102370007A6892F8073243F0100382F8073201219D
:102380007868214B98470023FB7378681F4B984768
:10239000034683F00103DBB2002B0BD07A6892F87E
:1023A000063243F0040382F806327868184B9847E7
:1023B0000023FB737868174B9847034683F00103AB
:1023C000DBB2002B06D07A6892F8063243F00203A3
:1023D00082F80632FB7B002B06D07A6892F8033233
:1023E00043F0020382F80332FB7B18461037BD46E8
:1023F00080BD00BF3D240000F52800000525000039
:10240000D92A0000BD25000035280000552700000E
:1024100061300000E931000080B582B000AF786023
:102420007868044B98477868034B984700BF083793
:10243000BD4680BD9D2400006125000090B583B09D
:1024400000AF78607A684F234FF480510F48104CEA
:10245000A0470346DAB20F4B1A707B684E2219462A
:1024600078680D4B984703461A460A4B1A707B68EA
:1024700093F84E20074B1B789A4201D0002300E0CE
:10248000012318460C37BD4690BD00BFB00A00209E
:10249000D53B0100A80A0020ED30000090B583B0C4
:1024A00000AF78607B684E22194678680E4B9847DB
:1024B00003461A467B6883F84E2001210B480C4BDB
:1024C00098477A684F234FF480510848094CA04739
:1024D00064210948094B98477868094B9847034697
:1024E00018460C37BD4690BDED300000B00A002004
:1024F000C13C0100253C01005C2300205943000041
:102500003D24000090B583B000AF78607B6803F194
:102510004F02FF2300210E480E4CA0477B684F332B
:10252000FE22194678680C4B984703461A460B4B17
:102530001A707B6893F84D21084B1B789A4201D0A2
:10254000002300E0012318460C37BD4690BD00BFB4
:10255000B00A0020D53B0100ED300000A80A0020A1
:1025600090B583B000AF78607B684F33FE22194688
:1025700078680D4B984703461A467B6883F84D21CF
:1025800000210A480A4B98477B6803F14F02FF235A
:1025900000210648074CA0477868074B9847034638
:1025A00018460C37BD4690BDED300000B00A002043
:1025B000C13C0100253C010005250000B0B584B0F8
:1025C00000AF786007F10C031846294B98477B68E9
:1025D00003F5A772B5234FF400512648264CA047B7
:1025E0007B6803F5A773B42219467868234B984794
:1025F00003461A46224B1A707B6893F80222204B3E
:102600001B789A4208D07A6892F8073243F0100398
:1026100082F80732002421E00023FB73FB7B0F2BA1
:102620001BDCFC7BFB7B7A68B4335B0013445B8967
:10263000194607F10C0040F21273E622114DA8472B
:10264000034699B27A6804F1B4035B0013440A4666
:102650005A81FB7B0133FB73E0E7012407F10C0394
:102660001846094B9847234618461037BD46B0BD5B
:102670002DF90000B00A0020D53B0100ED3000002C
:10268000A80A002091F9000043F90000B0B584B019
:1026900000AF786007F10C031846264B98470023DB
:1026A000FB73FB7B0F2B1BDCFC7BFB7B7A68B4335F
:1026B0005B0013445B89194607F10C0040F212736A
:1026C000E6221D4DA847034699B27A6804F1B40387
:1026D0005B0013440A465A81FB7B0133FB73E0E73E
:1026E0007B6803F5A773B42219467868134B9847A3
:1026F00003461A467B6883F8022202211048114BD8
:1027000098477B6803F5A772B5234FF400510C4836
:102710000D4CA04778680D4B984703461C4607F1BF
:102720000C0318460A4B9847234618461037BD46F7
:10273000B0BD00BF2DF9000091F90000ED300000A0
:10274000B00A0020C13C0100253C0100BD2500006D
:1027500043F9000090B583B000AF78607B6803F563
:10276000097202234FF440510E480F4CA0477B687A
:1027700003F509730122194678680C4B9847034604
:102780001A460B4B1A707B6893F82522084B1B786E
:102790009A4201D0002300E0012318460C37BD46C1
:1027A00090BD00BFB00A0020D53B0100ED30000015
:1027B000A80A002090B585B000AF786007F10C033F
:1027C0001846154B98477B6803F509730122194693
:1027D0007868124B984703461A467B6883F825228F
:1027E00003210F480F4B98477B6803F509720223BA
:1027F0004FF440510A480C4CA04778680B4B98475F
:1028000003461C4607F10C031846094B984723461C
:1028100018461437BD4690BD2DF90000ED3000007C
:10282000B00A0020C13C0100253C0100BD2500008C
:1028300043F9000080B584B000AF78600B46FB70B0
:102840000023FB73FB7B112B2ADCFB7B7A68A43310
:102850005B0013444FF4E162DA80FB7B7A68B433A7
:102860005B0013444FF47A725A81FB7B7A68C83359
:102870005B00134440F2DC52DA80FB7B7A68D83389
:102880005B0013440A225A81FB7B7A68EC335B00BD
:10289000134440F2DC52DA80FB7B0133FB73D1E757
:1028A0007B684FF47A72A3F89A217B684FF47A72AE
:1028B000A3F89A210423FB73FB7B0E2B0BDCFB7B21
:1028C0007A68C8335B0013444FF47A72DA80FB7B7A
:1028D0000133FB73F0E7FB78002B04D07868044BDE
:1028E0009847034600E0012318461037BD4680BDD7
:1028F0008D26000080B584B000AF78600023FB60B7
:10290000FB68022B15DC7B68FA68002123F81210A3
:102910007A68FB6804335B00134400229A807A686B
:10292000FB685B0013440022DA80FB680133FB6024
:10293000E6E77B6800221A837B6800225A837B6863
:102940004FF6ED729A837B684FF49672DA837B6858
:10295000002242F0280283F82120002283F822205E
:102960007B6864225A827B68002242F0140283F85A
:102970003920002283F83A207B68002242F01902B5
:1029800083F83B20002283F83C207B6823334FF000
:1029900080421A607B6827334FF07E521A607B6852
:1029A0002B33474A1A607B682F33464A1A607B688C
:1029B0003333454A1A607B68002242F0190283F8DB
:1029C0003720002283F838207B68002242F028025A
:1029D00083F82120002283F822207B684FF41672AE
:1029E0009A827B683222DA827B6893F83D3023F04A
:1029F0000103DAB27B6883F83D207B6893F83D30B1
:102A000023F00203DAB27B6883F83D207B6893F8F9
:102A10003D3023F00403DAB27B6883F83D207B6805
:102A200093F83D3023F00803DAB27B6883F83D2049
:102A30007B6893F83D3023F01003DAB27B6883F8AB
:102A40003D207B6893F83D3023F02003DAB27B68A9
:102A500083F83D207B6893F83D3003F07F03DAB2C2
:102A60007B6883F83D207B68002283F840207B68E8
:102A7000002283F841207B680C2283F820207B68A9
:102A8000142283F83E207B68282283F83F207B684D
:102A900042330E4A1A607B68002242F02D0283F80E
:102AA0002120002283F822207B684233084A1A60E2
:102AB0007868084B9847034618461037BD4680BDD6
:102AC0009A99193F9A999141CDCC4C3E0000F04122
:102AD0003333333F9D24000080B584B000AF78606D
:102AE0000B46FB707B68002283F85120002283F89C
:102AF00052207B68002242F0320283F84F200022ED
:102B000083F850207B68002242F0640283F853204F
:102B1000002283F854207B68452283F855207B6887
:102B2000452283F856207B68412283F857207B6832
:102B3000412283F858207B68002262F0410283F82A
:102B40005920002283F85A207B68002242F00102BB
:102B500083F85B20002242F0040283F85C2000230B
:102B6000FB73FB7B032B26DCFA7B796813465B0047
:102B700013449B000B4450330D334FF07E521A60C8
:102B8000FA7B796813465B0013449B000B44503377
:102B90001133CE4A1A60FA7B796813465B001344FE
:102BA0009B000B4458330D334FF07C521A60FB7B73
:102BB0000133FB73D5E77B685D33C44A1A607B68D9
:102BC0006133C24A1A607B6865334FF000021A60B5
:102BD0007B688133BD4A1A607B688533BB4A1A60C3
:102BE0007B6889334FF000021A607B68002283F80B
:102BF0008D207B68002283F88E200023FB73FB7BF3
:102C0000062B0CDCFB7B7A687C335B0013440022D0
:102C10005A7200229A72FB7B0133FB73EFE70023A9
:102C2000FB73FB7B092B10DCFB7B7A6842339B0038
:102C300013440022DA7100221A7200225A72002212
:102C40009A72FB7B0133FB73EBE77B68002283F80E
:102C50003721002283F838217B68002283F839214C
:102C6000002283F83A217B68002283F83B2100226E
:102C700083F83C217B68002283F83D21002283F801
:102C80003E217B68002283F88F20002283F8902069
:102C90007B68002262F0770283F89120002242F0E4
:102CA000130283F892207B68002262F0230283F8EB
:102CB0009320002242F0050283F894207B680022D2
:102CC00083F896207B68002283F895207B68002299
:102CD00083F89720002283F898207B68002262F016
:102CE000770283F89920002242F0130283F89A2099
:102CF0007B68002262F0230283F89B20002242F0CE
:102D0000050283F89C207B68002283F89E207B6864
:102D1000002283F89D207B68002283F89F200022F8
:102D200083F8A0207B68002262F0770283F8A1205C
:102D3000002242F0130283F8A2207B68002262F096
:102D4000230283F8A320002242F0050283F8A42086
:102D50007B68002283F8A6207B68002283F8A520E8
:102D60007B68002283F8A720002283F8A8207B68D4
:102D7000002262F0770283F8A920002242F01302B9
:102D800083F8AA207B68002262F0230283F8AB203C
:102D9000002242F0050283F8AC207B68002283F811
:102DA000AE207B68002283F8AD207B68002262F0B1
:102DB000170283F8AF20002242F0030283F8B0200C
:102DC0007B68002262F02F0283F8B120002242F0DB
:102DD000070283F8B2207B68002262F0230283F8A6
:102DE000B320002242F0050283F8B4207B68002261
:102DF00083F8B6207B68002283F8B5207B68002228
:102E000062F0170283F8B720002242F0030283F831
:102E1000B8207B68002262F02F0283F8B9200022DC
:102E200042F0070283F8BA207B68002262F0230296
:102E300083F8BB20002242F0050283F8BC207B68A7
:102E4000002283F8BE207B68002283F8BD20002387
:102E5000FB73FB7B072B3BDCFA7B79681346DB00BB
:102E60009B1A0B44B833002262F01702DA71002279
:102E700042F003021A72FA7B79681346DB009B1A50
:102E80000B44B833002262F02F025A72002242F043
:102E900007029A72FA7B79681346DB009B1A0B448F
:102EA000B833002262F02302DA72002242F00502F7
:102EB0001A73FA7B79681346DB009B1A0B44C533FF
:102EC00000221A70FB7B0133FB73C2E7CDCC4C3E72
:102ED0007B68002262F0170283F8F720002242F09C
:102EE000030283F8F8207B68002283F83F217B6887
:102EF000322283F840217B68002242F0070283F8E7
:102F00000F21002283F81021002283F811210022D2
:102F100083F812217B68002262F03F0283F81321BC
:102F2000002242F0010283F81421002283F81521C7
:102F3000002283F816217B68002283F817210022E3
:102F400042F00A0283F81821002283F81921002296
:102F500083F81A217B68002283F81B21002242F0AB
:102F6000700283F81C21002283F81D21002283F8BF
:102F70001E217B68002283F81F21002283F8202174
:102F8000002283F82121002283F822217B6800227D
:102F900042F0280283F82321002283F82421002212
:102FA00083F82521002283F826217B68002283F8FC
:102FB0002721002262F07F0283F82821002242F0BC
:102FC000020283F82921002283F82A210023FB73BF
:102FD000FB7B032B0CDCFB7B7A689C335B0013448C
:102FE00000225A7200229A72FB7B0133FB73EFE7D7
:102FF0007B68002262F0370283F8F720002283F812
:10300000F8207B68002262F0370283F8F920002262
:1030100083F8FA207B68002262F0370283F8FB20F5
:10302000002283F8FC207B68FD330A4A1A607B6823
:1030300003F24913084A1A60FB78002B04D0786821
:10304000064B9847034600E0012318461037BD465B
:1030500080BD00BF0000404000409C45612500004D
:1030600080B582B000AF78607A6892F824326FF34E
:10307000000382F824327A6892F824326FF3410315
:1030800082F824327A6892F824326FF3820382F84D
:1030900024327A6892F824326FF3C30382F8243220
:1030A0007A6892F824326FF3041382F824327A6833
:1030B00092F824326FF3451382F824327A6892F83A
:1030C00024326FF3861382F824327A6892F824321D
:1030D0006FF3C71382F824327868034B984703468E
:1030E00018460837BD4680BDB527000080B487B0BC
:1030F00000AFF860B9607A605523FB750023BB759B
:103100007B685A1E7A60002B14BF01230023DBB2B8
:10311000002B0AD0BB685A1CBA601A78FB7D134496
:10312000FB75BB7D0133BB75EAE7FB7D18461C3799
:10313000BD465DF8047B704790B585B000AF786000
:1031400040F20923FB8101237B737B7B0B2B36DC55
:103150007B7B162202FB03F303F50A737A681344A0
:103160001522194678681C4B984703463B737B7BB6
:103170007A68162101FB03F3134403F23D233A7BE3
:103180001A707B7B162202FB03F303F50A737A683D
:103190001A4416234FF480411048114CA0477B7B02
:1031A0009BB21A4692001A44520013445B009AB232
:1031B000FB891344FB817B7B01337B73C5E7786814
:1031C000084B98470346002B01D0012300E0002361
:1031D00018461437BD4690BDED300000B00A0020FF
:1031E000253C0100E931000090B585B000AF786062
:1031F00040F20923FB817B68A52283F82A2301235F
:103200007B737B7B0B2B67DC7B7B162202FB03F340
:1032100003F50A737A681A4416234FF48041344840
:10322000344CA0470346162B14BF01230023DBB206
:10323000002B08D07A6892F80B326FF3000382F803
:103240000B32002350E07B7B9BB21A4692001A445B
:10325000520013445B009AB2FB891344FB817B7BD1
:10326000162202FB03F303F50A737A68134415224E
:1032700019467868204B984703463B737B7B7A68F6
:10328000162101FB03F3134403F23D231B783A7B21
:103290009A4208D07A6892F80B326FF3000382F8F2
:1032A0000B32002320E07B7B7A68162101FB03F3BD
:1032B000134403F50A731B68002B09D17B7B7A68E2
:1032C000162101FB03F3134403F50E73A5221A70B4
:1032D0007B7B01337B7394E77A6892F80B3243F07F
:1032E000010382F80B32012318461437BD4690BD06
:1032F000B00A0020D53B0100ED30000080B485B05D
:1033000000AF78600123FB73FB7B0B2B71DCFB7B35
:103310007A68162101FB03F3134403F231230022E0
:103320001A70FB7B7A68162101FB03F3134403F543
:103330000A7300221A8000225A80FB7B7A681621C9
:1033400001FB03F3134403F50A7300229A80002261
:10335000DA80FB7B7A68162101FB03F3134403F543
:103360000C7300221A70FB7B7A68162101FB03F3B1
:10337000134403F2312300221A70FB7B7A68162172
:1033800001FB03F3134403F2322300221A80FB7B78
:103390007A68162101FB03F3134403F50D73002231
:1033A0001A80FB7B7A68162101FB03F3134403F2B6
:1033B000362300221A80FB7B7A68162101FB03F377
:1033C000134403F50E7300221A70FB7B7A681621F2
:1033D00001FB03F3134403F50E7300225A7000221D
:1033E0009A700022DA7000221A71FB7B0133FB73A2
:1033F0008AE700BF1437BD465DF8047B70470000C4
:1034000080B582B000AF786039607B68012B0CD149
:103410003B684FF6FF72934207D10648064B984728
:10342000064A07490348074B984700BF0837BD467F
:1034300080BD00BFB00A0020593901000000002003
:1034400075390100B9B2010080B500AF4FF6FF71C8
:103450000120014B984780BD0134000080B582B047
:1034600000AF78607B681846084B98477B680C3340
:103470001846064B98477B6818331846034B984705
:103480007B6818460837BD4680BD00BF9103000029
:1034900080B582B000AF78607B680C331846054B6E
:1034A00098477B6800229A727B6818460837BD46A9
:1034B00080BD00BF5D34000080B483B000AF786091
:1034C0007B6818460C37BD465DF8047B70470000EA
:1034D00080B584B000AF78600123BB730023FB7319
:1034E000FB7B5A1CFA73012B0FD0022B19D0002B37
:1034F00028D17868204B9847034683F00103DBB25C
:10350000002B1CD00023BB7319E078681B4B984735
:10351000034683F00103DBB2002B12D00023BB7300
:103520000FE07868164B9847034683F00103DBB23F
:10353000002B01D00023BB730023FB7302E000BF0C
:1035400000E000BFBB7B83F00103DBB2002B07D0A0
:103550000C4A92F8063243F0100382F8063206E075
:10356000084A92F806326FF3041382F80632BB7BE6
:1035700018461037BD4680BD89350000053600006D
:10358000CD3500008023002090B585B000AF786075
:1035900007F10C020223022178680B4CA047034676
:1035A000002B0BD03B7B1B021AB27B7B1BB213435D
:1035B0001BB29AB27B681A80012300E000231846F0
:1035C0001437BD4690BD00BF4537000090B585B0AB
:1035D00000AF786007F10F02012304217868084CDE
:1035E000A0470346002B05D097F90F207B68DA70BF
:1035F000012300E0002318461437BD4690BD00BFEC
:103600004537000090B585B000AF786007F10F0234
:10361000012305217868084CA0470346002B05D0FC
:1036200097F90F207B689A70012300E00023184669
:103630001437BD4690BD00BF4537000090B585B03A
:1036400000AF786007F10F0201231E217868174C44
:10365000A047034683F00103DBB2002B01D0002317
:1036600020E0FB7B03F00303002B02D07B680122E8
:103670001A72FB7B03F00C03002B02D07B68012243
:10368000DA71FB7B03F03003002B02D07B68012250
:103690009A71FB7B03F0C003002B02D07B680122F0
:1036A0005A72012318461437BD4690BD45370000B5
:1036B00080B582B000AF7860F02200217868124BAC
:1036C00098470346002B19D014211048104B9847F7
:1036D000F522002178680C4B98470346002B0DD04B
:1036E00014210A480A4B9847F62200217868064BB5
:1036F00098470346002B01D0012300E00023184621
:103700000837BD4680BD00BF153700005C23002090
:103710005943000090B583B000AF78600B46FB7052
:103720001346BB70BB78FA7860210448044CA0476C
:10373000034618460C37BD4690BD00BF84220020CA
:10374000B54C000090B587B002AFF8607A601A46B9
:103750000B46FB721346BB72FA7ABB7A00937B6806
:1037600060210648064CA0470346002B01D00123E8
:1037700000E0002318461437BD4690BD8422002087
:10378000FD48000080B483B000AF87ED010AD7ED9B
:10379000017AF0EEE77AB0EE670A0C37BD465DF8C5
:1037A000047B704780B582B000AF78607B680C33D3
:1037B0001846034B98477B6818460837BD4680BDBE
:1037C0009103000080B582B000AF78607B68184636
:1037D000124B98477B6800225A637B6800229A63E9
:1037E0007B6800221A647B684FF000025A647B6891
:1037F000483318460A4B98477B6854331846094BA0
:1038000098477B684FF000025A677B68002283F874
:103810007B207B6818460837BD4680BD9134000088
:1038200091030000A537000080B582B000AF78603A
:103830007B681846034B98477B6818460837BD4697
:1038400080BD00BFB934000080B582B000AF7860A1
:103850007B681846034B9847034618460837BD4611
:1038600080BD00BF3D36000080B483B000AF7860FB
:103870007B681B8807EE903AF8EE677AB2EE047A1E
:10388000C7EE876AF0EE667AB0EE670A0C37BD467F
:103890005DF8047B704780B483B000AF78607B68CC
:1038A00093F9033007EE903AF8EEE77AB0EE670A44
:1038B0000C37BD465DF8047B704780B483B000AF21
:1038C00078607B6893F9023007EE903AF8EEE77A79
:1038D000B0EE670A0C37BD465DF8047B704780B4D4
:1038E00083B000AF78607B689B8818460C37BD4674
:1038F0005DF8047B704780B483B000AF78607B686C
:103900005B6C07EE903AB0EE670A0C37BD465DF887
:10391000047B70470000000090B589B000AF78606C
:10392000494B1B78BFF35B8FDBB203F00103002B25
:103930000CBF01230023DBB2002B15D04248434BC0
:1039400098470346002B14BF01230023DBB2002B52
:103950000AD078683E4B9847F0EE407A3D4BC3ED75
:10396000007A39483C4B98477868394B984787ED3F
:10397000070A3A483A4B9847B861364B93ED007ABC
:10398000D7ED077AB4EE677AF1EE10FA4ED03348ED
:10399000334B984778612F4BD3ED007A97ED077A38
:1039A00077EE677AB0EE670A2E4B9847F0EE407AD2
:1039B000C7ED037AD7ED037AF7EE000AB0EE670A97
:1039C000294B9847F0EE407AC7ED037A274B1B68E6
:1039D0007A69D31A3B61FA68254B10469847254C03
:1039E00017A3D3E90023A04703460C4619462246F5
:1039F000214B0846114698470346FB60D7ED036A02
:103A00003B6907EE903AB8EE677AC6EE877A9FED8B
:103A10001B7A67EE877A7B68C3ED117A0D4AFB69E2
:103A20001360124A7B691360FB6801E04FF00003EA
:103A300007EE903AB0EE670A2437BD4690BD00BF4E
:103A4000379D52A246DF913FBC0A00204918020070
:103A500069380000B80A0020811802005C230020A9
:103A600095420000853700005DFA0000B40A00208E
:103A7000DDDE020085DF020075E5020000007A4409
:103A800080B483B000AF78607B689B7918460C37B0
:103A9000BD465DF8047B704780B483B000AF7860AA
:103AA0007B68DB7918460C37BD465DF8047B7047B0
:103AB00080B483B000AF78607B681B7A18460C37FF
:103AC000BD465DF8047B704780B483B000AF78607A
:103AD0007B685B7A18460C37BD465DF8047B7047FF
:103AE00080B483B000AF78607B680A225A607B683C
:103AF0000A229A607B680C22DA607B680C221A61C9
:103B00007B6800221A707B6800225A707B68184616
:103B10000C37BD465DF8047B704780B483B000AFBE
:103B200078607B6818460C37BD465DF8047B7047AB
:103B300080B586B000AF78604D4B4122C3F820219C
:103B40004B4B4122C3F824214A4A07F10C0392E867
:103B5000030083E8030000237B617B69012B7EDC8B
:103B60007B699B0007F11802134453F80C2C13884F
:103B7000042161F30A2313807B699B0007F118027B
:103B8000134453F80C2CD3886FF3C403D3807B69A0
:103B90009B0007F11802134453F80C3C1B6B03F015
:103BA0000803002B14BF01230023DBB2002B00D03D
:103BB000EDE77B699B0007F11802134453F80C3CB6
:103BC0000522DA727B699B0007F11802134453F84F
:103BD0000C3C1B6B03F04003002B14BF012300239C
:103BE000DBB2002B00D0EDE77B699B0007F11802E8
:103BF000134453F80C3C4FF4C0529A807B699B00ED
:103C000007F11802134453F80C3C1B6B03F0040338
:103C1000002B14BF01230023DBB2002B00D0EDE703
:103C20007B699B0007F11802134453F80C3C0022F7
:103C30009A727B699B0007F11802134453F80C3CFD
:103C40001B6B03F02003002B14BF01230023DBB206
:103C5000002B00D0EDE77B6901337B617DE700211C
:103C60007868054B984700BF1837BD4680BD00BF38
:103C7000001C004054FE02007D3C000080B483B074
:103C800000AF78600B46FB70884B1B6B03F0100392
:103C9000002B14BF01230023DBB2002B00D0F3E77D
:103CA000834B1B6B03F01003002B14BF0123002375
:103CB000DBB2002B00D0F3E7FB78013B0A2B00F2CC
:103CC000E28001A252F823F0F53C00001F3D000005
:103CD0004B3D0000773D0000A33D0000CF3D0000BC
:103CE000873E0000FB3D0000273E00006D3E0000C7
:103CF000533E00006F4AD3696FF31343D3616D4A9B
:103D0000D36943F00403D361684A137A6FF3030362
:103D10001372674A137A6FF303031372C0E0654AA4
:103D2000D369012161F31343D361624AD36943F03C
:103D30000403D3615D4A137A6FF3030313725C4A81
:103D4000137A6FF303031372AAE05A4AD36902216C
:103D500061F31343D361574AD36943F00403D3613A
:103D6000524A137A6FF303031372514A137A6FF3B3
:103D70000303137294E04F4AD369032161F31343A1
:103D8000D3614C4AD36943F00403D361474A137AA1
:103D90006FF303031372464A137A6FF3030313722C
:103DA0007EE0444AD369042161F31343D361414A5D
:103DB000D36943F00403D3613C4A137A6FF30303DE
:103DC00013723B4A137A6FF30303137268E0394AA4
:103DD000D369052161F31343D361364AD36943F0B4
:103DE0000403D361314A137A6FF303031372304A29
:103DF000137A6FF30303137252E02E4AD36906213C
:103E000061F31343D3612B4AD36943F00403D361B5
:103E1000264A137A6FF303031372254A137A6FF35A
:103E2000030313723CE0234AD369072161F3134370
:103E3000D361204AD36943F00403D3611B4A137A48
:103E40006FF3030313721A4A137A6FF303031372A7
:103E500026E0164A137A042161F303031372144A0D
:103E6000137A042161F30303137219E00F4A137AE2
:103E7000022161F3030313720D4A137A022161F3E5
:103E8000030313720CE0094A137A032161F303035D
:103E90001372074A137A032161F30303137200BFFD
:103EA00000BF0C37BD465DF8047B7047001C004323
:103EB000002000430018004090B587B000AFF860C4
:103EC000B9603B601346FB7197F907203B68B968FE
:103ED000F868114CA0477861104B78699847104CEE
:103EE0000BA3D3E90023A04703460C4619462246FC
:103EF0000C4B08461146984703463B613B6907EE69
:103F0000903AB0EE670A1C37BD4690BDAFF3008013
:103F1000C057CED395DE493F293F000099DE02000D
:103F200085DF020075E5020090B587B000AFF8604C
:103F3000B9603B601346FB7100233B6197F90710A2
:103F400001233A684748484CA047BB681B6B03F005
:103F50000403002B14BF01230023DBB2002B00D08D
:103F6000F3E73B68042B0AD0092B06D197F90730F9
:103F7000012B06D10323FB7503E000236EE000BF95
:103F800000E000BFFB7D03F01F03D9B2BA6893883D
:103F900061F304039380BB681B6B03F00203002BE7
:103FA00014BF01230023DBB2002B00D0F3E7BA6873
:103FB000138843F002031380BB681B6B03F00203FA
:103FC000002B14BF01230023DBB2002B00D0F3E74A
:103FD000BA68137D43F002031375BB68012283F8AE
:103FE0002E20BA68137D43F002031375BB6893F863
:103FF0002E30C3F30003DBB283F00103DBB2002BEE
:1040000000D0F3E7BB68B3F840309BB23B61BB68BC
:104010001B6B03F00203002B14BF01230023DBB250
:10402000002B00D0F3E7BA6813886FF341031380C5
:10403000BB681B6B03F00203002B14BF012300239A
:10404000DBB2002B00D0F3E7FB689B681A46FB68E5
:104050005B683969F868054CA047034618461C3769
:10406000BD4690BD58230020F14E00007140000075
:1040700080B485B000AFF860B9607A603B607A6860
:104080003B689A4201D1BB6810E07A683B689A426B
:1040900006D97A683B68D31ABA6822FA03F305E0B6
:1040A0003A687B68D31ABA6802FA03F318461437E1
:1040B000BD465DF8047B704780B483B000AF034613
:1040C0003960FB80B7F90630002B0CDB0F4AB7F9DB
:1040D000063018463B68DBB25B01D9B213180A46BA
:1040E00083F800230CE00A49B7F906309BB203F0CD
:1040F0000F03043B3A68D2B25201D2B20B441A7693
:1041000000BF0C37BD465DF8047B704700E100E05E
:1041100000ED00E080B400AFBFF34F8F0549054BC1
:10412000DB6803F4E062044B1343CB60BFF34F8FB3
:1041300000BFFDE700ED00E00400FA0580B582B0A5
:1041400000AF78607B68013BB3F1807F01D301232E
:104150000FE00A4A7B68013B536007214FF0FF30B4
:10416000074B9847054B00229A60044B07221A60C0
:10417000002318460837BD4680BD00BF10E000E0B0
:10418000B940000080B485B000AF7860EFF31083D1
:10419000FB60FA687B681A6072B6BFF35F8F00BF7E
:1041A0001437BD465DF8047B704780B485B000AF1E
:1041B0007860BFF35F8F7B681B68FB60FB6883F3ED
:1041C000108800BF1437BD465DF8047B70470000BF
:1041D00080B500AF044B1B680133034A13600348EA
:1041E000034B984700BF80BDC80A00205C23002015
:1041F0006142000080B483B000AF78607B684FF00C
:10420000FF325A607B6818460C37BD465DF8047B68
:10421000704780B483B000AF78607B6818460C3775
:10422000BD465DF8047B704780B582B000AF786012
:10423000074B084A1A60064B1B68074AA2FB032378
:104240009B091846054B984700BF0837BD4680BDFF
:1042500034000020000E2707D34D62103D410000BE
:1042600080B582B000AF78607B685B68B3F1FF3FD8
:104270000AD07B685B685A1E7B685A607B685B6803
:10428000002B02D1024B984700BF0837BD4680BDC6
:104290001541000080B483B000AF7860034B1B6809
:1042A00018460C37BD465DF8047B7047C80A0020ED
:1042B00080B489B000AF7860244B9B68FB61244BCD
:1042C0005B6803F08063002B14BF01230023DBB283
:1042D000BB61204B1B687B61FB693B61BB69FB6079
:1042E0007B69BB60194B9B68FB61194B5B6803F0F2
:1042F0008063002B14BF01230023DBB2BB61154B8D
:104300001B687B61FA68BB699A42E5D1BA687B6930
:104310009A42E1D13A69FB699A4200D2DCE7BA6875
:10432000FB6813444FF47A7202FB03F2074B59689F
:104330003B69CB1A42F2222101FB03F31B0D13440C
:1043400018462437BD465DF8047B704710E000E056
:1043500000ED00E0C80A002080B584B000AF7860AE
:1043600039603B68002B1FD07868114B9847F86084
:104370003B68002B19D03B68002B0AD078680C4BA7
:1043800098470246FB68D31AB3F57A7F01D301231D
:1043900000E00023002BEBD03B68013B3B60FB6857
:1043A00003F57A73FB60E6E700BF1037BD4680BDBA
:1043B000B142000080B487B000AF786039603B68DC
:1043C000002B13D03A6813461B019B1ADB00143BE9
:1043D0007B610A4B5B683B61084B5A683B69D31AA7
:1043E000FB60FA687B699A4202D2F5E700BF00E001
:1043F00000BF1C37BD465DF8047B7047001000E02D
:1044000080B483B000AF78607B6818460C37BD4637
:104410005DF8047B704780B485B000AFF860B96088
:1044200011461A460B46FB711346BB71FB68BA680E
:104430009A61FB68BA799A75FB683A7EDA75FB680F
:10444000FA791A77FB6818461437BD465DF8047B85
:104450007047000090B583B000AF78601949786864
:10446000194B98477868194B98477B6893F91C104B
:104470007B689B7D1A4610231548164CA0477B6825
:1044800093F91C107B68DB7D1A4610231048114CF1
:10449000A0477B6893F91C107B689B7D1A4602231A
:1044A0000B480C4CA0477B6893F91C107B68DB7DA4
:1044B0001A4602230648074CA04700BF0C37BD46EA
:1044C00090BD00BFA0860100794500002545000091
:1044D00058230020F14E000080B483B000AF786014
:1044E0007B689A69136843F0010313607B689B69DA
:1044F0001B68C3F30003DBB2002B07D17B689B6909
:10450000DB69C3F30003DBB2002B01D0012300E021
:104510000023002B00D0E9E700BF0C37BD465DF853
:10452000047B704780B483B000AF78607B689A6981
:10453000136843F0020313607B689B69DB69C3F374
:104540004003DBB2002B00D0F6E77B689A69538BFF
:10455000012161F3051353837B689B69DB69C3F316
:104560008003DBB2002B00D0F6E700BF0C37BD465E
:104570005DF8047B7047000080B584B000AF7860C0
:10458000396007F10C031846134B98477B6899690B
:1045900007F10C03114A1846114B98477868114BE4
:1045A00098477B689B6914221A607B689A693B680C
:1045B0005B000A49B1FBF3F3DBB2013BD9B2D3682C
:1045C00061F30703D36007F10C031846064B9847C5
:1045D00000BF1037BD4680BD41580000006CDC02B2
:1045E0006D580000D94400005758000080B582B0D3
:1045F00000AF786078680B4B98470346002B06D0D5
:104600007B689A69536843F48023536005E07B68B4
:104610009A69536843F48023536000BF0837BD464E
:1046200080BD00BF3148000080B582B000AF786027
:1046300078680B4B98470346002B06D07B689A6935
:1046400053686FF39243536005E07B689A6953683F
:104650006FF39243536000BF0837BD4680BD00BF73
:104660003148000080B582B000AF78600B46FB7027
:104670007868134B98470346002B12D07B689A69E1
:10468000FB7803F00303D9B2536861F3114353601D
:104690007B689B69DB69C3F38003DBB2002B0AD024
:1046A000F6E77B689A69FB7803F00303D9B2536895
:1046B00061F31143536000BF0837BD4680BD00BFA2
:1046C0003148000080B582B000AF78600B46FB70C7
:1046D0001346BB70FB785B005AB297F90230134364
:1046E0005BB2FB7078682D4B9847034683F001035B
:1046F000DBB2002B0AD07868294B9847034683F039
:104700000103DBB2002B01D0012300E00023002BCA
:1047100000D0E7E77B689A69FB789BB2C3F30A0392
:1047200099B2536A61F30A035362BB78002B0BD131
:104730007B689B691B7EC3F30003DBB283F001033C
:10474000DBB2002B1BD0F3E77B689B691B7EC3F3B6
:104750004003DBB283F00103DBB2002B0FD07B6898
:104760009B691B7EC3F30003DBB2002BECD07B689C
:104770009A69536843F44033536000230AE07B682E
:104780009B695B8BC3F38003DBB2002B01D000235A
:1047900000E0012318460837BD4680BD5B48000095
:1047A0008548000080B584B000AF78600B46FB7090
:1047B0001D481E4B9847F8607B689B69FA789A629F
:1047C0007B689B691B7EC3F30003DBB283F00103AC
:1047D000DBB2002B18D01448144B98470246FB68F4
:1047E000D31A0A2B8CBF01230023DBB2002B01D08C
:1047F000002314E07B689B695B8BC3F30003DBB28F
:10480000002BDDD000230AE07B689B695B8BC3F340
:104810008003DBB2002B01D0002300E00123184607
:104820001037BD4680BD00BF5C23002095420000CC
:1048300080B483B000AF78607B689B691B68C3F36A
:104840008203DBB2052B0CBF01230023DBB2184629
:104850000C37BD465DF8047B704780B483B000AF71
:1048600078607B689B695B8BC3F30113DBB2012B20
:104870000CBF01230023DBB218460C37BD465DF8A0
:10488000047B704780B483B000AF78607B689B691D
:104890005B8BC3F30113DBB2022B0CBF012300239C
:1048A000DBB218460C37BD465DF8047B704700004C
:1048B00080B582B000AF786078680F4B98470346A8
:1048C000002B10D07B689B691B7EC3F34003DBB2D7
:1048D00083F00103DBB2002B00D0F3E77B689B6918
:1048E0009B6ADBB203E07B689B699B6ADBB218467C
:1048F0000837BD4680BD00BF3148000090B587B085
:1049000000AFF8607B600B46FB721346BB7200235E
:10491000FB75FB7A00221946F868334B984703462B
:1049200083F00103DBB2002B08D00321F8682F4B82
:104930009847F8682E4B9847002350E0BB7A1946F9
:10494000F8682C4B9847034683F00103DBB2002B39
:1049500008D00321F868254B9847F868244B9847FE
:1049600000233CE0FB7A01221946F8681E4B984769
:104970000346002B32D0FB7D5A1CFA751A467B6821
:104980009C18F8681C4B98470346237097F828300A
:10499000012B1CDD0123BB75BA7D97F828309A42A4
:1049A00015DAF868154B98470221F8680F4B9847BD
:1049B000FB7D5A1CFA751A467B689C18F8680E4BEA
:1049C000984703462370BB7D0133BB75E4E7F86865
:1049D0000B4B98470321F868044B9847012318466E
:1049E0001C37BD4690BD00BFC546000065460000AF
:1049F0006D4E0000A5470000B148000029460000A8
:104A0000ED45000090B587B000AFF8607B600B46C5
:104A1000FB7213463B810023FB7507F108033B61E2
:104A20003B691A78414B1A703B695A78404B1A70AF
:104A3000FB7A00221946F8683E4B9847034683F0FC
:104A40000103DBB2002B08D00321F8683A4B9847EA
:104A5000F8683A4B9847002363E03B6901331B78C1
:104A60001946F868364B9847034683F00103DBB2DA
:104A7000002B0BD13B691B781946F868304B9847DF
:104A8000034683F00103DBB2002B01D0012300E0D9
:104A90000023002B08D00321F868274B9847F868BB
:104AA000264B984700233CE0FB7A01221946F86820
:104AB000204B98470346002B32D0FB7D5A1CFA75D9
:104AC0001A467B689C18F8681E4B9847034623706B
:104AD00097F82830012B1CDD0123BB75BA7D97F8B0
:104AE00028309A4215DAF868174B98470221F8687F
:104AF000114B9847FB7D5A1CFA751A467B689C1827
:104B0000F868104B984703462370BB7D0133BB7593
:104B1000E4E7F8680D4B98470321F868064B98477F
:104B2000012318461C37BD4690BD00BFCC0A0020AB
:104B3000CD0A0020C5460000654600006D4E00000D
:104B4000A5470000B148000029460000ED450000DF
:104B500090B587B000AFF8607A601A460B46FB72DA
:104B60001346BB7200237B61FB7A01221946F86869
:104B70001A4B98470346002B29D0F868184B9847E2
:104B800003461A467B681A70BB7A012B18DD012395
:104B90007B61BA7A7B699A4212D9F868114B9847BF
:104BA0000221F868104B98477A687B69D418F86836
:104BB0000B4B9847034623707B6901337B61E8E721
:104BC000F8680A4B98470321F868074B98477B69B8
:104BD000DBB218461C37BD4690BD00BFC54600007D
:104BE000B14800002946000065460000ED45000080
:104BF00090B583B000AF78600B46FB701346BB7076
:104C0000BA1CF97801237868034CA047034618467C
:104C10000C37BD4690BD00BF1D4C000080B586B06E
:104C200000AFF8607A603B600B46FB72FB7A0022B3
:104C30001946F8681B4B9847034683F00103DBB223
:104C4000002B08D00321F868174B9847F868174BDA
:104C50009847002322E00023FB75FA7D3B689A42C7
:104C600017D2FB7D7A6813441B781946F868104BFD
:104C70009847034683F00103DBB2002B05D00321E4
:104C8000F868094B9847012308E0FB7D0133FB7569
:104C9000E3E70321F868044B9847012318461837C7
:104CA000BD4680BDC5460000654600006D4E000053
:104CB000A547000090B585B002AF78600846114660
:104CC0001A460346FB700B46BB7013467B70781C7C
:104CD000BA78F9780123009303467868034CA0471B
:104CE000034618460C37BD4690BD00BFF14C00008E
:104CF00080B586B000AFF8607B600B46FB72134650
:104D0000BB723B6ADBB2013BBB75FB7A00221946E2
:104D1000F868204B9847034683F00103DBB2002B71
:104D200008D00321F8681C4B9847F8681B4B98473C
:104D300000232AE0BB7A1946F868194B98470023EC
:104D4000FB75FA7D3B6A9A421AD2BB7D5A1EBA7530
:104D50001A467B6813441B781946F868104B98472D
:104D6000034683F00103DBB2002B05D00321F86872
:104D7000094B9847012308E0FB7D0133FB75E0E711
:104D80000321F868044B9847012318461837BD469D
:104D900080BD00BFC5460000654600006D4E0000A6
:104DA000A547000080B586B000AFF8607B600B4679
:104DB000FB7213463B8107F108033B613B6ADBB2A0
:104DC000013BBB75FB7A00221946F868234B9847D4
:104DD000034683F00103DBB2002B08D00321F868FF
:104DE0001F4B9847F8681F4B9847002332E03B69F8
:104DF00001331B781946F8681B4B98473B691B78B1
:104E00001946F868184B98470023FB75FA7D3B6AF2
:104E10009A421AD2BB7D5A1EBA751A467B68134451
:104E20001B781946F868104B9847034683F0010336
:104E3000DBB2002B05D00321F868094B984701230A
:104E400008E0FB7D0133FB75E0E70321F868044BC4
:104E50009847012318461837BD4680BDC546000057
:104E6000654600006D4E0000A547000080B483B089
:104E700000AF78607B689B8A5A1C91B27A689182F5
:104E8000642BCCBF01230023DBB2002B06D0064AE3
:104E900092F8073243F0040382F8073200BF0C3760
:104EA000BD465DF8047B70478023002080B483B04A
:104EB00000AF78607B6818460C37BD465DF8047B10
:104EC000704780B483B000AF78607B6818460C37B9
:104ED000BD465DF8047B704780B483B000AF786056
:104EE0007B6818460C37BD465DF8047B70470000B0
:104EF00090B587B000AFF8607A601A460B46FB7237
:104F00001346BB7297F90A300F2B07D197F90B1094
:104F100000237A68F8684C4CA04790E097F90A3073
:104F2000102B07D197F90B1002237A68F868464CCA
:104F3000A04784E097F90A30112B07D197F90B109D
:104F400001237A68F868404CA04778E07B6803F05A
:104F50000103002B39D03D4997F90B207B685B0892
:104F6000D2010A44134430331B78DBB203F00F0341
:104F70007B61364C97F90B207B685B0897F90A1028
:104F8000C9B20901C8B27969C9B20143C9B2D20133
:104F90002244134430330A461A702C4897F90B30D8
:104FA0002A4997F90B20D20111447A680A44403209
:104FB0001278D2B242F04102D1B2DB01C2187B6852
:104FC000134440330A461A7039E0204997F90B2000
:104FD0007B685B08D2010A44134430331B78DBB290
:104FE00003F0F0037B61194C97F90B207B685B0899
:104FF00097F90A10C9B201F00F01C8B27969C9B2B4
:105000000143C9B2D2012244134430330A461A7014
:105010000E4897F90B300D4997F90B20D201114436
:105020007A680A4440321278D2B242F04102D1B2D8
:10503000DB01C2187B68134440330A461A7000BF74
:105040001C37BD4690BD00BF51500000008000419C
:1050500080B487B000AFF8607A603B600B46FB72AB
:1050600001227B6802FA03F37B613B68032B67D85C
:1050700001A252F823F000BF895000001B5100002C
:10508000AF500000E5500000314A97F90B30DB01CA
:105090001A447B681344403302221A702C4A97F951
:1050A0000B30DB01134404337A691A6049E0284A63
:1050B00097F90B30DB011A447B6813444033062216
:1050C0001A70234A97F90B30DB01134404337A69D1
:1050D0001A601F4A97F90B30DB01134418337A69C1
:1050E0001A602EE01A4A97F90B30DB011A447B68EC
:1050F0001344403306221A70154A97F90B30DB012E
:10510000134404337A691A60114A97F90B30DB01B2
:10511000134414337A691A6013E00D4A97F90B307F
:10512000DB011A447B681344403302221A70084A98
:1051300097F90B30DB01134408337A691A6000E0F9
:1051400000BF00BF1C37BD465DF8047B704700BF41
:105150000080004180B487B000AFF8607A601A46E2
:105160000B46FB721346BB7201227B6802FA03F303
:105170007B611F4A97F90B30DB01134408331A682F
:105180007B691340002B0CBF01230023DBB2002BF3
:1051900010D0174A97F90B30B97A01F00101C9B262
:1051A000DB011A447B68134403F14002137861F376
:1051B00082031370BB7A83F00103DBB2002B08D0AB
:1051C0000B4A97F90B30DB01134414337A691A60E8
:1051D00008E0074A97F90B30DB01134418337A696A
:1051E0001A6000BF1C37BD465DF8047B704700BFE6
:1051F0000080004180B487B000AFF8600B467A6051
:10520000FB7201227B6802FA03F37B61064A97F97D
:105210000B30DB0113441C337A691A6000BF1C3762
:10522000BD465DF8047B70470080004180B485B0C6
:1052300000AFF8600B467A60FB720E4A97F90B30AC
:10524000DB01134420331A687B6822FA03F303F06E
:105250000103002B14BF01230023DBB2002B01D07C
:10526000012300E0002318461437BD465DF8047B97
:10527000704700BF0080004180B582B000AF786009
:1052800039607B68012B07D13B684FF6FF72934270
:1052900002D10348034B984700BF0837BD4680BD85
:1052A000D40A0020AD4E000080B500AF4FF6FF716C
:1052B0000120014B984780BD7952000080B483B033
:1052C00000AF78607B68002283F824207B68184652
:1052D0000C37BD465DF8047B704780B483B000AFE7
:1052E00078607B6818460C37BD465DF8047B7047D4
:1052F00090B587B000AFF8607A603B600B46FB72F8
:10530000B7F928301B127B61B7F92830FB74B7F965
:1053100028309BB223F480739AB2FB681A807B68B2
:105320000E3B072B32D801A252F823F05D53000048
:105330008D5300004D5300008D5300008D5300002D
:105340008D5300006D5300007D53000097F90B1042
:1053500005237A689748984CA04717E097F90B10F7
:1053600006237A689348944CA0470FE097F90B10F6
:1053700006237A688F48904CA04707E097F90B10F6
:1053800006237A688B488C4CA04700BF8B4A7B6908
:1053900013441B7883F00103DBB2002B00F018816B
:1053A000864A7B69134401221A70854A85497B69C4
:1053B00051F823302033412142F823107B69042B1C
:1053C00065D9B7F928301B127F4A52F82320FB68B1
:1053D0005A60FB685A68136843F001031360FB6866
:1053E0005B681B69C3F30003DBB2002B00D0F6E758
:1053F000FB685A6813686FF341031360FB685B68CE
:105400001B69C3F34003DBB2002B00D0F6E7FB6857
:105410005B6840F204521A60FB685B6802221A73F0
:10542000FB685B681B69C3F38013DBB2002B00D001
:10543000F6E7FB685A68FB7C3968C9B213440A4630
:105440001A77FB685B681B69C3F38013DBB2002B20
:1054500000D0F6E7FB685B68FF22DA76FB685B68E2
:105460001B69C3F34013DBB2002B00D0F6E7FB68E7
:105470005A68136843F002031360FB685B681B699A
:10548000C3F34003DBB2002B00F08D80F5E7B7F9E2
:1054900028301B124C4A52F82320FB689A60FB68A4
:1054A0009A68136843F001031360FB689B689B686C
:1054B000C3F30003DBB2002B00D0F6E7FB689A6869
:1054C00013686FF341031360FB689B689B68C3F329
:1054D0004003DBB2002B00D0F6E7FB689B68062296
:1054E0001A60FB689B680222DA63FB689B689B6812
:1054F000C3F38013DBB2002B00D0F6E7FB689B6898
:105500009B68C3F30023DBB2002B07D1FB689B68C9
:105510009B68C3F34023DBB2002B01D0012300E0E2
:105520000023002B00D0E9E7FB689A68FB7C10336E
:105530009B0013443A685A60FB689B689B68C3F3FE
:105540000023DBB2002B07D1FB689B689B68C3F389
:105550004023DBB2002B01D0012300E00023002B0D
:1055600000D0E9E7FB689B6841F288321A64FB6867
:105570009B689B68C3F3C013DBB2002B00D0F6E737
:10558000FB689B6801229A77FB689A68136843F06E
:1055900002031360FB689B689B68C3F34003DBB2A4
:1055A000002B00D0F6E73968F868084B98470123CC
:1055B0001AE000BF58230020F14E0000580B0020D5
:1055C000001C0040D4FE02000400002045560000EC
:1055D000B7F928301A467969F868054B9847396851
:1055E000F868044B9847002318461C37BD4690BD09
:1055F000F95500004556000080B485B000AFF86052
:10560000B9601346FB80BB68042B09D9B7F9063093
:105610001B120B4A52F82320FB685A60012308E052
:10562000B7F906301B12064A52F82320FB689A602D
:10563000012318461437BD465DF8047B704700BF50
:105640000400002080B483B000AF786039607B68CC
:105650009B689B68C3F38003DBB2002B00D0F6E7A6
:105660007B689B689B68C3F30023DBB2002B07D1E8
:105670007B689B689B68C3F34023DBB2002B01D09F
:10568000012300E00023002B00D0E9E77B689B6842
:105690007A6812881C32396843F822107B689B684C
:1056A0007A6812881C3253F82230164A13607B68DD
:1056B0009B689B68C3F30023DBB2002B07D17B6898
:1056C0009B689B68C3F34023DBB2002B01D001230E
:1056D00000E00023002B00D0E9E77B689A6813798B
:1056E00043F0020313717B689B689B68C3F38003DC
:1056F000DBB2002B00D0F6E700BF0C37BD465DF8EB
:10570000047B7047540B002080B582B000AF7860F6
:1057100039607B68012B0CD13B684FF6FF729342D6
:1057200007D10648064B9847064A07490348074BE6
:10573000984700BF0837BD4680BD00BF640B0020FE
:10574000BD52000000000020DB520000B9B2010091
:1057500080B500AF4FF6FF710120014B984780BD27
:105760000957000080B483B000AF0346FB80B7F94F
:105770000630002B0DDB0A49B7F906305B09B7F993
:10578000062092B202F01F02012000FA02F241F854
:10579000232000BF0C37BD465DF8047B704700BF77
:1057A00000E100E080B483B000AF0346FB80B7F9AE
:1057B0000630002B0EDB0A49B7F906305B09B7F952
:1057C000062092B202F01F02012000FA02F26033BA
:1057D00041F8232000BF0C37BD465DF8047B7047BD
:1057E00000E100E080B483B000AF03463960FB8085
:1057F000B7F90630002B0CDB0F4AB7F90630184614
:105800003B68DBB25B01D9B213180A4683F8002368
:105810000CE00A49B7F906309BB203F00F03043BD2
:105820003A68D2B25201D2B20B441A7600BF0C379A
:10583000BD465DF8047B704700E100E000ED00E04C
:1058400080B483B000AF78607B6818460C37BD46E3
:105850005DF8047B704780B483B000AF78607B68EC
:1058600018460C37BD465DF8047B704790B587B08D
:1058700000AFF860B9607A60B968F868254B98475E
:105880000346BB7597F91630002B3FDB0023FB75F1
:10589000FB7D032B2BDC97F91620FB7D1E49D200E4
:1058A00013445B000B44B3F9063018461B4B984772
:1058B00097F91620FB7D1849D20013445B000B4476
:1058C000B3F9063007211846154B984797F916206B
:1058D000FB7D1149D20013445B000B44B3F9063041
:1058E0001846104B9847FB7D0133FB75D0E797F9BD
:1058F000161001237A68F8680B4CA04797F9161028
:1059000000237A68F868084CA04700E000BF1C3705
:10591000BD4690BD2D59000000FF0200A5570000B4
:10592000E557000065570000A559000080B485B018
:1059300000AF786039600023FB73FB7B052B0DD82B
:10594000FB7B0A4A1B0113441A683B689A4201D147
:10595000FB7B04E0FB7B0133FB73EEE7FF23184680
:105960001437BD465DF8047B704700BF00FF02009E
:1059700080B487B000AFF860B9607A60BB685B0044
:105980007A68B2FBF3F3FB82FB8A002B02DDFB8A11
:10599000013BFB82FB8ADBB218461C37BD465DF833
:1059A000047B704780B487B000AFF8607A601A4615
:1059B0000B46FB721346BB727B68002B6BD0BB7A25
:1059C000002B07D097F90B30364A1B0113440433E0
:1059D0001B7806E097F90B30324A1B01134405335C
:1059E0001B78FB753049FB7D03F1200251F8223012
:1059F0006FF3861341F822302B4AFB7D203352F897
:105A00002330C3F38013DBB2002B00D0F4E77B68B4
:105A1000264A934206D1244AFB7D2033402142F896
:105A200023102AE07B68224A934206D11E4AFB7D5E
:105A30002033412142F823101FE07B681D4A934226
:105A400006D1194AFB7D2033422142F8231014E08D
:105A50007B68B3F5004F06D1134AFB7D2033432109
:105A600042F8231009E07B68134A934205D10E4A9D
:105A7000FB7D2033442142F823100B4AFB7D203369
:105A800052F82330C3F38013DBB283F00103DBB29F
:105A9000002B01D0F1E700BF1C37BD465DF8047B49
:105AA000704700BF00FF0200001C0040000E2707E7
:105AB000006CDC0200E1F505001BB70080B485B086
:105AC00000AFF860B9601346FB71FB79072B4BD828
:105AD00001A252F823F000BFF95A0000075B000052
